:10000000B05A022051330000C57C0000813300004B
:100010008133000081330000813300008133000010
:10002000000000000000000000000000F9310000A6
:100030008133000000000000B1310000477B000068
:100040002933000029330000293300002933000040
:100050002933000029330000293300002933000030
:100060002933000029330000293300002933000020
:100070002933000029330000293300002933000010
:100080002933000029330000293300002933000000
:1000900029330000293300002933000029330000F0
:1000A00029330000293300002933000029330000E0
:1000B00029330000293300002933000029330000D0
:1000C00029330000293300002933000029330000C0
:1000D00029330000293300002933000029330000B0
:1000E00029330000293300002933000029330000A0
:1000F0002933000029330000293300002933000090
:10010000293300002933000029330000293300007F
:10011000293300002933000029330000293300006F
:10012000293300002933000029330000293300005F
:10013000293300002933000029330000293300004F
:04014000293300005F
:1001440053B94AB9002908BF00281CBF4FF0FF313A
:100154004FF0FF3000F070B9ADF1080C6DE904CE3A
:1001640000F006F8DDF804E0DDE9022304B070478E
:100174002DE9F047089E0D4604468A46002B7FD1A0
:100184008A42174641D9B2FA82F24AB1C2F1200139
:1001940005FA02F39740944020FA01F141EA030A78
:1001A4004FEA17484FEA144C1FFA87F9BAFBF8FED6
:1001B40008FB1EA30EFB09F14CEA0343994206D93E
:1001C400FB1802D2994200F224810EF1FF3E591A23
:1001D400A3B2B1FBF8F008FB101100FB09F943EAE4
:1001E4000144A14505D93C1902D2A14500F20E8172
:1001F4000138A4EB090440EA0E4000211EB1D440AA
:100204000023C6E90043BDE8F08702B9FFDEB2FA75
:1002140082F2002A4FD1CB1B4FEA174E1FFA87F800
:100224000121250CB3FBFEFC0EFB1C302B4608FB06
:100234000CF945EA0045A9450AD97D192CBF0123CB
:100244000023A94502D9002B00F0D9800CF1FF3C12
:10025400A5EB0905A3B2B5FBFEF00EFB105508FB98
:1002640000F843EA0544A04505D93C1902D2A0454B
:1002740000F2C9800138A4EB080440EA0C40BDE751
:100284008B4208D9002E00F0B1800021C6E9000598
:100294000846BDE8F087B3FA83F1002946D1AB42A2
:1002A400C0F0A780824240F2A4800846002EAAD063
:1002B400C6E9004AA7E7C2F12000974001FA02F319
:1002C4004FEA174EC14024FA00F51FFA87F894400C
:1002D4001D43B1FBFEF02B0C0EFB101100FB08FCC0
:1002E40043EA01439C4509D9FB182CBF0121002195
:1002F4009C4502D9002900F095800138A3EB0C033A
:10030400ADB2B3FBFEF10EFB113301FB08FC45EA71
:100314000345AC4505D97D1902D2AC4500F289806C
:100324000139A5EB0C0341EA00417AE7C1F120044D
:100334008B4002FA01F705FA01FCE24020FA04F8C6
:10034400E54000FA01FE134348EA0C024FEA134861
:100354004FEA124C1FFA83F9B5FBF8FA08FB1A5559
:100364000AFB09F04CEA054C60450AD913EB0C0C66
:100374002CBF01250025604501D9002D55D00AF177
:10038400FF3AACEB000C92B2BCFBF8F008FB10CCCB
:1003940000FB09F942EA0C4CE14505D913EB0C0CBE
:1003A40001D2E1453BD8013840EA0A40ACEB090CE4
:1003B400A0FB0789CC4545464A4602D306D1C6452B
:1003C40004D20138B8EB070569EB03022EB3BEEB88
:1003D40005036CEB020C23FA01F20CFA04F42CFA78
:1003E40001F300211443C6E900430CE731463046CB
:1003F40009E7841A65EB030301209A4656E7ACF13A
:10040400020C3D4424E702383C4434E702383C44BF
:10041400EFE6AEF1020E3B44D9E63146F3E602388C
:100424009C44C1E702383B4468E7AAF1020A9C44B1
:10043400A7E702393D4474E7704700BF30B585B083
:10044400002307E003F5C071464A474842F82100FB
:100454000133DBB2072BF5D94FF00000032363F31C
:1004640002006FF3C500414B414A9B1AC3F3C90311
:1004740063F38F103F4907F00CF900F0BDF83E48D4
:1004840000F08AF8C0B101A800F02EFE3B4A1268C1
:10049400824222D04FF00000012363F302006FF385
:1004A400C500324B324A9B1AC3F3C90363F38F105E
:1004B400334907F0EEF8FEE7012363F302006FF31C
:1004C400C5002A4B2A4A9B1AC3F3C90363F38F104E
:1004D400294A2C4907F0DDF8FEE703254FF0000018
:1004E40065F302006FF3C500204C214BE41AC4F3FA
:1004F400C90464F38F10039A234907F0CAF84FF034
:10050400000065F302006FF3C50064F38F101F4908
:1005140007F0BFF84FF44041002003F093FF60B1AF
:100524004FF00000012363F302006FF3C50064F38E
:100534008F10174907F0ADF8FEE701A806F042F85E
:100544004FF00000012363F302006FF3C500074B73
:10055400074A9B1AC3F3C90363F38F100D4907F0CD
:1005640098F8FEE7008001503546526E34A1000031
:100574001CA1000098A10000ACA100004C1A0220AC
:10058400DCA10000C0A10000FCA1000028A2000022
:1005940048A2000078A2000008B5054B1B6813B1FF
:1005A400034B186808BD05F00FF9014B1860F7E715
:1005B4004802022010B900200860704708B50246BE
:1005C4004FF00000012363F302006FF3C500074BF3
:1005D40007495B1AC3F3C90363F38F10002305496A
:1005E40007F057F86FF0150008BD00BF34A10000F4
:1005F4001CA1000098A2000008B54FF4C0510248A5
:1006040004F04CFB08BD00BF4C02022070B5A4B03E
:10061400202928D806460D460024144B1B68A34203
:100624001CDD09A809F085F9002109A804F064FC7F
:100634000F4B03EBC4025268126853F8341009A834
:1006440009F07DF901A909A809F0BCF92A46314647
:1006540001A807F0AEFB18B10134DEE74FF0FF3418
:10066400204624B070BD4FF0FF34F9E7BCA200006F
:10067400C0A200002DE9F041D6B015461F465A4CE1
:10068400D4F800805F9C04945E9C039406AC0294AE
:100694005D9C01945C9C009405F0BEFF0446002818
:1006A40040F08580609B23B1202206A9184607F0FC
:1006B40097FB002300934FF6FF733A4629464EA852
:1006C40005F0E9FF0446002871D145464FF0FF3696
:1006D4001CE04FF0FF3619E04FF0FF3616E0BDF88E
:1006E4005231202B77D10EAA5599384607F0BAF823
:1006F4000446002861D120220EA906A806F051F96B
:1007040005463A4B1B68834259D1012454AB0DF57D
:10071400A97255A94EA806F023F8002845DB37DC5A
:10072400BDF85021102ADAD0012A20D0202AEDD198
:10073400002ECEDB2E4B1B68B342CDDDBDF852310B
:10074400B3F5807F4DD10EAA5599384607F08AF843
:10075400002839D1F6B20096BDF852310EAA2021F4
:1007640006A800F0B7F880464FF0FF36CEE7BDF894
:100774005231202B32D80EAA5599384607F072F818
:10078400F8B99DF852110EA8FFF740FF0646BDE7E1
:10079400002C0CBF0124002419D0144B1B684345C2
:1007A40017D0114BD3F8008001E0A846044604B9E1
:1007B4004446204656B0BDE8F081A846F7E7804697
:1007C400F5E7A8460446F2E7A8460446EFE7A8463C
:1007D400EDE79846EBE74FF0FF34EAE74FF0FF34DC
:1007E400E7E74FF0FF34E4E7000002204C1A022050
:1007F400BCA2000070B5ADF51C7D0E4619464368D9
:10080400B3F5807F4FD1202A50D141AA04F032FBA6
:10081400054600284DD19DF80332BC2B4CD10DF276
:10082400E31109A806F04AF82B46DE2B07DC41AA9F
:10083400D25C09A8C45C6240C2540133F5E79DF858
:10084400243003F07F038DF82430BD2D05DC09AB83
:100854005B5D002B33D10135F7E79DF8E230012BC6
:1008640032D181A809F065F8002181A804F044FB85
:100874000822174981A809F062F82022314681A88C
:1008840009F05DF820220DF1E30181A809F057F881
:1008940001A981A809F096F820220DF2E31101A81C
:1008A40006F07FF80DE04FF0FF300AE04FF0FF3024
:1008B40007E04FF0FF3004E04FF0FF3001E04FF06D
:1008C400FF300DF51C7D70BD4FF0FF30F9E700BF20
:1008D400C8A200002DE9F047ACB006460F4690468A
:1008E4001D469DF8D0A0154BD3F800900022114668
:1008F40001A808F0D8FF124C54F83A30009304EBE6
:10090400CA04626812681A44694601A805F084FFA3
:1009140010B9029BAB4209D001A808F0D2FF01A88C
:1009240008F0CFFF48462CB0BDE8F08743463A466E
:10093400314601A8FFF75EFF8146F0E70000022080
:10094400C0A2000008B51022034907F032FA08B12A
:10095400022008BD0120FCE71CA3000070B586B08E
:100964000D460223ADF80430002407E0286806F0A1
:1009740078FF23E0286806F074FF0134012C1BD8AB
:10098400294606AB234413F8140C01F0CBFF0646AA
:10099400A0B928688168102302AA103906F062FF02
:1009A40006460028E2D11022064902A807F001FAFF
:1009B40006460028DED101E04FF0FF36304606B08F
:1009C40070BD00BF1CA3000008B581681023044A51
:1009D400103906F066FF00B908BD0120FCE700BF2E
:1009E4001CA3000030B585B002A9022006F09BF8D4
:1009F40000286ED16946062006F095F800286AD1D1
:100A0400002407E02B79042B29D09DF80A20934277
:100A140025D00134022C48D804EB44032F4A02EBBE
:100A240043059DF8081012F8130005F0BEFF0028D6
:100A3400EFD09DF80010687805F0B7FF0028E8D0E3
:100A4400AB78042B03D09DF80B209342E1D1EB78D3
:100A5400042BD7D09DF803209342DAD1D2E74FF08C
:100A64000000032363F302006FF3C5001C4B1D4A0F
:100A74009B1AC3F3C90363F38F106B79022B07D05E
:100A8400032B10D0042B01D0174A02E0174A00E0D0
:100A9400174A184906F0FDFD6879831EDBB2022B64
:100AA40015D9FF2013E0144AF3E74FF000000323A5
:100AB40063F302006FF3C500094B0A4A9B1AC3F3A0
:100AC400C90363F38F100D4906F0E3FD012005B05F
:100AD40030BDFF20FBE7FF20F9E700BF2CA3000097
:100AE40034A100001CA10000E0A20000F4A2000058
:100AF400D0A20000FCA20000D8A200000CA30000B9
:100B040002680E4B9A420DD1C2680389D8438242CF
:100B14000CD810B4D418012010B18B68A34203D9A7
:100B240010BC7047002070470020F9E7002010B186
:100B34008B68A34200D97047002070473DB8F396F4
:100B440000B587B0134600200490039002904FF440
:100B540080720192044A00920A460146FFF78AFD18
:100B640007B05DF804FB00BFB02602202DE9F04178
:100B740082B005460C4617462A4B1E68002005F035
:100B840041FD01A9C0B201F0CDFE18B1304602B05A
:100B9400BDE8F0812C2000FB04582146284606F0CD
:100BA4007EF820B1D8F8103013F0100F0AD024B911
:100BB4000126019806F055FEE8E70199284606F05B
:100BC4005AF9F5E73B46019A41462846FFF7B8FF34
:100BD4000646019D29464046FFF792FF18B1124B85
:100BE4001B68B342E5D0A4B94FF00000012363F3BE
:100BF40002006FF3C5000D4B0D4A9B1AC3F3C903E2
:100C040063F38F105CB90B4A0B4906F042FD0126D1
:100C1400CFE7AA680021284606F073FEE4E7074AF6
:100C2400F2E700BF000002204C1A022034A10000A9
:100C34001CA100004CA3000054A3000040A300002A
:100C440070B505460E460020FFF7CCFE0446022888
:100C540005D0042803D0032801D0204670BD3246B5
:100C640001212846FFF782FF044B1B688342F4D01E
:100C7400012801D00524F0E70446EEE74C1A0220CF
:100C840030B583B005460C46002300930193084613
:100C940006F088F830B32A681F4B9A4216D0EA6AE5
:100CA4001D4B9A4218D0019B009A934200D900939D
:100CB400009BA360009A2146284600F015FD174BBF
:100CC4001A68002A16DC002003B030BD6A460021F1
:100CD400284605F08DFFE2E701AA0121284605F028
:100CE40087FFE0E704F10801002005F031FFA36865
:100CF4000093DFE74FF00000022363F302006FF379
:100D0400C500074B07495B1AC3F3C90363F38F108C
:100D1400054906F0BEFCD6E73DB8F396B02702209D
:100D240034A100001CA1000078A3000038B50446DB
:100D34000D46FFF7A5FF0246EB7984F85830033BD4
:100D4400DBB2012B0CD9EB79022B13D0042B11D07D
:100D5400032B0FD094F85830FF2B15D0104638BD14
:100D6400002006F033F902460028ECD0FF2384F873
:100D74005830E8E7002006F016F902460028E9D0CA
:100D8400FF2384F85830E5E74FF00000012363F3B4
:100D940002006FF3C500054B054A9B1AC3F3C90350
:100DA40063F38F10034906F074FCFEE734A10000DE
:100DB4001CA10000A4A3000038B504460D4605F0AC
:100DC400B6FF68B900221146204605F0C6FFE8B90F
:100DD400204600F011FB78BB012384F8583014E05E
:100DE4004FF00000022363F302006FF3C500484B89
:100DF400484A9B1AC3F3C90363F38F108022464900
:100E040006F047FC012384F8583038BD4FF0000049
:100E1400022363F302006FF3C5003D4B3D4A9B1A66
:100E2400C3F3C90363F38F1000223C4906F031FC7D
:100E3400012384F85830E8E7284605F0A9FF29463D
:100E4400204606F072F8F8B9284605F0ABFF80F0AA
:100E540001012A46C9B2204605F07FFF50BB28464F
:100E640005F0A0FF00283BD0EB79012B45D02A46A2
:100E740001212046FFF77AFE294B1B68834243D0A9
:100E8400052384F85830C0E74FF00000022363F3D1
:100E940002006FF3C5001E4B1E4A9B1AC3F3C9031D
:100EA40063F38F1000221F4906F0F3FB012384F83B
:100EB4005830AAE74FF00000022363F302006FF3F7
:100EC400C500134B134A9B1AC3F3C90363F38F1072
:100ED4000022124906F0DDFB012384F8583094E720
:100EE40029462046FFF722FF2A460021204605F026
:100EF40034FF012384F8583087E729462046FFF75A
:100F04009FFE84F8580080E7EB7984F858307CE73A
:100F140034A100001CA10000ACA30000ECA300005D
:100F24004C1A022014A400002DE9F84F0F469046F5
:100F34001E46DDF828900B9D002409E000F5C072E0
:100F4400144B154943F822100130C0B20728F5D9D3
:100F5400AC4217D2A5EB040ABAF5806F01D94FF45D
:100F6400806A53460D4AA119384606F07BFC60B9E5
:100F740053460A4A04EB0901404606F092FC30B994
:100F84005444E3E70020BDE8F88F0120FBE701208B
:100F9400F9E700BF008001503546526EB01A0220B6
:100FA4002DE9F04184B004460F46484B1E68602288
:100FB400002106F039FF464B6362464B23654FF030
:100FC400FF354FF000080EE04146002005F01AFB03
:100FD4002C2101FB08F120312144C0B201F0A2FC14
:100FE400054608F10108B8F1010FEDD9694620461C
:100FF400FFF7E2FE94F858308DF80730042B1CD824
:10100400022B26D2012B2AD194F85830FF2B2AD058
:10101400012B06D06A460021204605F09EFE0546B7
:1010240048B9002211462046FFF7A0FD06462A4B88
:101034001B68834229D000273FE0052B0FD10020F5
:1010440005F0C4FF05460028DED0FF2384F858309D
:10105400DAE76946204605F0B6FE0546D4E7FF23E5
:1010640084F85830D0E74FF00000012363F3020006
:101074006FF3C500194B1A4A9B1AC3F3C90363F3F0
:101084008F10184906F005FBFEE710220021684680
:1010940006F0CAFE236A5B783B71236A5B68BB6017
:1010A4003C600D4B1E68C6E7C7F101032C2202FB0E
:1010B4000343186A06F0D5FB0137012FF4D905B9AB
:1010C4003546284604B0BDE8F08100BF0000022088
:1010D400B01E0220B02202204C1A022034A10000CB
:1010E4001CA10000A4A3000008B501460148FFF7B5
:1010F40057FF08BD501A02202DE9F04383B00F4674
:1011040015461C46DDF82880536A53F830601A6887
:10111400B61A013853F83030A3EB02092368012BC7
:101124001BD03A463146404605F0A1FE0197009691
:101134004B46424641462846FFF7F6FE21462846DE
:1011440005F062FE23680133236018B10C4A13686A
:101154000133136003B0BDE8F083E368022B04D1CC
:101164000B99284605F087FEDBE74146284605F043
:1011740082FE22464146284605F0B5FEF0E700BF50
:10118400B02702202DE9F04383B00E4615461C46D5
:10119400526A52F830101368A1EB0308013852F870
:1011A4003070FF1A2A6D52F830101368A1EB03094E
:1011B4002379012B05D02379022B1CD003B0BDE881
:1011C400F083324639460A9805F051FE019600979D
:1011D4004B460A9A0B992846FFF7A6FE2146284655
:1011E40005F012FE022323710028E4D0114A13688B
:1011F40001331360DFE7324649460B9805F037FEAA
:101204000196CDF8009043460B9A0A992846FFF7B9
:101214008BFE2146284605F0F7FD23680133236041
:10122400012323710028C9D0024A136801331360D3
:10123400C4E700BFB027022070B582B015461E4631
:10124400002B36D0436A5C687379012B11D0022BD2
:1012540017D00024002005F0D5F901A9C0B201F08F
:1012640061FB68B30124019806F0FBFA204602B042
:1012740070BD01BB32681C4B1B689A42EAD800243B
:10128400E8E73368012B07D9174A1268934203D859
:1012940099B900240121DDE7012B01D00024D9E70D
:1012A40001B100240129D5D13379022BD2D10021F7
:1012B400D0E70024CEE70024CCE700242146C9E788
:1012C40020232A462146019806F0CCFA044640B968
:1012D400002EC8D02A68054B9A42C4D04FF0FF3480
:1012E400C1E70124BFE700BF040002203DB8F39624
:1012F4002DE9F04F85B007460C46019201460020C7
:1013040005F06BFB051E69DBE36D0093384605F0C1
:1013140072FB81464FF0000B4FF001084FF0FF3A8B
:1013240003E00BF1010B2546B046002D1BDD6C1EBE
:101334009DF8001001230DF10F0204FB01913846C2
:1013440006F090FA061E4BDB01220DF10F01384620
:1013540005F05DFB10B1B045E3D1E4E7BAF1FF3F1E
:10136400E1D1AA46DFE7BBF1010F0EDCBAF1FF3F82
:101374003AD0BAF17F0F1ADC012301994B710AEBC1
:1013840003020A600B7100202BE04FF000000123E0
:1013940063F302006FF3C500144B154A9B1AC3F3A1
:1013A400C90363F38F10134906F073F9DEE70223D0
:1013B400019A5371AAF1800A0AEBDA735B100133C4
:1013C4001360BAF1000F0AF0010AB8BFCAF1000AAB
:1013D4000AF1010A82F804A0002002E0072000E0DC
:1013E400012005B0BDE8F08F0020FAE734A1000029
:1013F4001CA100003CA4000038B5856A446DA542D8
:1014040002D0631CAB4211D1802D22D8002319468F
:10141400A34244D2426A02EBC3025168026D02EB5A
:10142400C30252688A4227D10133F1E74FF000002A
:10143400022363F302006FF3C500284B284A9B1A6A
:10144400C3F3C90363F38F10264906F022F9002081
:1014540024E04FF00000022363F302006FF3C500A1
:101464001E4B1F4A9B1AC3F3C90363F38F101E4913
:1014740006F00FF9002011E04FF00000022363F39F
:1014840002006FF3C500154B154A9B1AC3F3C90339
:1014940063F38F10154906F0FCF8002038BDA5420F
:1014A4001AD9426A02EBC3035B68994201D1012055
:1014B400F4E74FF00000022363F302006FF3C5006A
:1014C400064B074A9B1AC3F3C90363F38F100749FA
:1014D40006F0DFF80020E1E70120DFE734A1000097
:1014E4001CA100005CA4000090A40000BCA40000A7
:1014F40010B588B006A9022005F015FB4FF00000D6
:10150400032363F302006FF3C5003E4B3E4A9B1A6C
:10151400C3F3C90363F38F109DF81830012B53D024
:10152400032B4FD0394B9DF819209DF81A109DF8C4
:101534001B40029401910092354A364906F0A9F8FD
:1015440004A9062005F0EFFA4FF00000032363F32B
:1015540002006FF3C5002B4B2B4A9B1AC3F3C9033C
:1015640063F38F109DF81030012B31D0032B2DD055
:10157400264B9DF811209DF812109DF813400294FB
:1015840001910092244A234906F083F89DF818300B
:10159400012B03D19DF81A30032B1BD04FF0000010
:1015A400032363F302006FF3C500164B164A9B1A1C
:1015B400C3F3C90363F38F10184906F06AF80020D7
:1015C40008B010BD164BAEE7164BACE7144BD0E792
:1015D400144BCEE79DF81030012BDFD04FF0000004
:1015E400032363F302006FF3C500064B064A9B1AFC
:1015F400C3F3C90363F38F100B4906F04AF80220C2
:10160400DEE700BF34A100001CA10000E4A4000038
:10161400F8A4000008A5000044A5000070A500007F
:10162400F0A40000E8A4000054A50000F0B587B0C1
:101634000C46496801F0FF21234DA94204D1064616
:1016440017462268012A01D007B0F0BD04A9184644
:1016540005F069FA4FF00000032363F302006FF30F
:10166400C5001A4B1A4A9B1AC3F3C90363F38F10BC
:101674009DF81030012B24D0032B20D0154B9DF85E
:1016840011209DF812109DF81350029501910092BB
:10169400114A124905F0FDFF9DF81030032BD3D1F8
:1016A4003946304605F0E7FB384605F073FAA16881
:1016B400384605F088FA3846FFF786F9C4E7084B40
:1016C400DDE7084BDBE700BF0001000434A10000A4
:1016D4001CA10000E4A4000044A5000008A500002B
:1016E400F0A40000E8A40000F0B585B007460D465C
:1016F40000243E4B1C60436A5E6834443B490B68DB
:1017040001330B609442F8D3284605F04BFB70B1CB
:10171400F86D05F05DF9BA6A013A00233344984242
:1017240001D9013AFAE7314B1B68934214D203A959
:10173400022001F0F7F802A9062001F0F3F80623CD
:10174400029A29463846FFF771FF6B79012B17D0AF
:1017540002236B71012438E04FF00000022363F38D
:1017640002006FF3C500224B224A9B1AC3F3C9033C
:1017740063F38F10204905F08CFF0123EB7132E0F5
:101784001A4B1C680AE0029B0193039B00932B46AF
:101794003A4631462046FFF7AFFC013C3CB12A688B
:1017A400124B1B689B1A01339C42F6D8EBE70123CA
:1017B4002B60CDE7029B0193039B00932B463A4693
:1017C40031462046FFF7DEFC0134084B1B68A34278
:1017D40003D32B68A342F7D8ECE7039806F041F84B
:1017E400029806F03EF805B0F0BD00BF04000220E8
:1017F40034A100001CA1000084A5000008B501224A
:10180400104B1A6010494FF0FF33C1F84833C1F848
:10181400083301F5805104310A600C4AC2F8483398
:10182400C2F80833A2F550420021C2F80015C2F8EC
:10183400083302F58052C2F80015C2F8083305F0E7
:10184400FEFB08BD0440015000400150005001500F
:10185400014B1860704700BF080002202DE9F043D7
:1018640083B0044608461546238B13F0080F05D1B0
:1018740003F0070600230093019369E0012909D0CE
:1018840043F02003238385F31188BFF36F8F03B0E4
:10189400BDE8F08343F010032383F4E7204605F00A
:1018A40030FC57E0D4F814904A466946204605F0C7
:1018B40041FC00275AE023691F680621204605F0F1
:1018C400F9FB4FF0000951E023695F6804212046C9
:1018D40005F0F0FB4FF0000948E023699F680521FB
:1018E400204605F0E7FB4FF000093FE0002246E008
:1018F400002244E043F00803238385F31188BFF3F7
:101904006F8F002944D1009B2BB14B464246694658
:10191400204605F085FC17B125492046B8474FF00D
:101924002003EFF3118583F31188BFF36F8F238BAB
:1019340023F008032383238B13F0100F2ED023F0FE
:10194400100323830120268B06F0070600289AD073
:101954000228A3D0002896D00128A3D00328AAD017
:101964000428B1D00528B8D00027B946238B03F04A
:101974000708B045BAD0A268002AB9D0012211469E
:10198400002AB7D1009A002AB4D1002FB2D1D2E7ED
:101994004A464146204605F095FBB4E713F0200F74
:1019A40004D023F0200323830220CCE70020CAE7DD
:1019B400537200002DE9F04F8FB006460D46924653
:1019C400039300249AF80000002800F09584252849
:1019D40008D00AF1010A2946B0470028C0F28D84D4
:1019E4000134EFE700230593069307930AF10108F6
:1019F4009AF80130252B01D001272CE00AF10208C6
:101A04008DF8173089E19DF8143043F004038DF804
:101A14001430FFB108F101081CE09DF8143043F0C4
:101A240008038DF81430F4E79DF8143043F01003E4
:101A34008DF81430EDE79DF8143043F020038DF851
:101A44001430E6E79DF8143043F040038DF8143069
:101A5400DFE7002757B398F80030203B102BF8D865
:101A640001A252F823F000BF2D1A0000571A0000FB
:101A7400571A00003B1A0000571A0000571A0000BA
:101A8400571A0000571A0000571A0000571A00008E
:101A9400571A00001F1A0000571A00000B1A000002
:101AA400571A0000571A0000491A00009DF8143014
:101AB40003F04403442B4ED0CDF8108098F8003046
:101AC4002A2B4FD004A805F03AFD049B984506D074
:101AD4009DF8143043F080038DF814300690049B75
:101AE400049398461A782E2A15D103F10108CDF8EB
:101AF40010805B782A2B44D004A805F020FD049BB9
:101B0400984506D09DF8153043F002038DF8153042
:101B14000790DDF8108098F800304C3B2E2B00F233
:101B2400DB80DFE803F0C9D9D9D9D9D9D9D9D9D932
:101B3400D9D9D9D9D9D9D9D9D9D9D9D9D9D9D9D911
:101B4400D9D937D969D950D9D9D9D9D9D9D9BFD9B6
:101B5400D9D9D9D9B5009DF814306FF386138DF80F
:101B64001430A9E79DF8143043F080038DF8143045
:101B74009DF8153043F001038DF8153043460133C9
:101B8400AEE79DF8153043F006038DF8153008F1E3
:101B94000108C0E708F1010298F80130682B08D069
:101BA4009DF81530022161F3C6038DF81530904677
:101BB4002BE09DF81530012262F3C6038DF8153031
:101BC40008F1020821E008F1010298F801306C2BB9
:101BD40008D09DF81530032161F3C6038DF8153044
:101BE400904612E09DF81530042262F3C6038DF886
:101BF400153008F1020808E09DF81530052262F35B
:101C0400C6038DF8153008F1010818F8013B8DF86A
:101C14001730A3F14102372A00F25181DFE812F0B4
:101C240027014F014F014F012701270127014F01D0
:101C34004F014F014F014F014F014F014F014F0120
:101C44004F014F014F014F014F014F014F0114014B
:101C54004F014F014F014F014F014F014F014F0100
:101C640027014F01140163002701270127014F01B8
:101C740063004F014F014F014F0130011401400136
:101C84004F014F0140014F0114014F014F01140155
:101C94009DF81530062262F3C6038DF8153008F15D
:101CA4000108B2E79DF81530072262F3C6038DF8E8
:101CB400153008F10108A8E79DF81530082262F3F1
:101CC400C6038DF8153008F101089DF8143043F06F
:101CD40002038DF8143098E79DF815306FF3C603AE
:101CE4008DF8153091E79DF81620012161F3020269
:101CF4008DF816209DF8152002F07802402A00F095
:101D0400AB80632B00F0AF809DF81430C3F3400226
:101D1400174367F341038DF814309DF8153013F021
:101D2400010F00F0DB80039B1A1D03921F68002F34
:101D3400C0F2CC809DF8153013F0040F00F0E08061
:101D4400039B1A1D0392D3F800B0BBF1000FC0F23D
:101D5400CE800021069107919DF8163003F0070309
:101D64009DF81520C2F3C3028C46012B00F0D180EC
:101D7400022B00F00E81042B00F04A81032B00F0AB
:101D84005F819DF8149019F00303029340F05E8183
:101D94009DF81730253B532B00F21382DFE813F034
:101DA4006201110211021102110211021102110247
:101DB4001102110211021102110211021102110287
:101DC4001102110211021102110211021102110277
:101DD4001102110211021102110211021102110267
:101DE4001102110211021102110211021102110257
:101DF4001102110211021102110211021102110247
:101E0400110211021102A1011102110211021102A7
:101E14001102110211021102110211027F01880143
:101E240011021102110211028801110211021102A0
:101E34001102E301A101C301110211027001110297
:101E4400A10111021102A1019DF81620022161F3E2
:101E540002028DF816204DE79DF8141041F001019F
:101E64008DF814104DE7171E18BF01274CE79DF895
:101E74001630042262F302038DF81630012743E77B
:101E84009DF81630032262F302038DF816309DF894
:101E9400153003F07803402B7FF436AF012733E786
:101EA4009DF81630032262F302038DF816309DF874
:101EB400153013F0780F3FF427AF012724E79DF87E
:101EC400143043F001038DF814301DE79DF81430ED
:101ED40043F004038DF814307F422BE79DF914304E
:101EE400002B02DB4FF0FF3724E7069F22E79DF823
:101EF40015306FF341038DF815304FF0FF3B28E7A1
:101F040013F0020F02D0DDF81CB022E74FF0FF3BC4
:101F14001FE7D31E042B04D8DFE803F00A1A253088
:101F24003000039B191D03911B68D9179C4605E0DB
:101F3400039B191D03911B68D9179C46012A24D0C1
:101F4400022A7FF41EAF0FFA8CF0C117844618E7FB
:101F5400039B073323F0070303F108010391186877
:101F640059688446EAE7039B073323F0070303F128
:101F740008010391186859688446DFE7039B191D1B
:101F840003911B68D9179C46D8E75FFA8CFC0021A3
:101F9400F7E6D31E042B04D8DFE803F00A19242F34
:101FA4002F00039B191D0391D3F800C0002105E005
:101FB400039B191D0391D3F800C00021012A23D0EB
:101FC400022A7FF4DEAE1FFA8CFC0021D9E6039BC3
:101FD400073323F0070303F10801039118685968D4
:101FE4008446EBE7039B073323F0070303F108015F
:101FF4000391186859688446E0E7039B191D03910F
:10200400D3F800C00021D9E75FFA8CFC0021B8E6C0
:10201400082A0AD0039B073323F0070303F10802BD
:102024000392186859688446ABE6039B073323F090
:10203400070303F108020392186859688446A0E66E
:10204400039B1A1D0392D3F800C09AE643465246F6
:102054002946304605F0F0FA0028C0F24E810444C7
:10206400C246AFE429462520B0470028C0F2458186
:102074000134DDF808900DF1360B4FF0000AA6E0AC
:10208400E246604605F083FEBBF1000F02DB8345A8
:1020940000D258460AEB000BDDF8089097E08DF863
:1020A40020C0DDF808900DF1210B0DF1200A8EE01F
:1020B40019F0080F05D119F0100904D04FF02009C8
:1020C40001E04FF02B096246002A71F100000ADAA0
:1020D400DCF1000261EB4103944619464FF02D09EF
:1020E40001E0DDF808900DF13603009308AB05AA72
:1020F400604605F037FA8246BBF1000FC0F29780C4
:102104000DF13603A3EB0A039DF814206FF3861236
:102114008DF814209B4540F28D80ABEB03030693AE
:102124000DF1360B53E0BCF1000F06D1DDF8089039
:10213400DFF8CCB1ABF1050A49E00DF136030093A9
:1021440008AB05AA6046002105F00CFA82469DF80A
:10215400163043F010038DF8163078238DF81730BD
:10216400DDF80890C8E79DF81530C3F3C303072BC7
:1021740007D8DFE803F0040D1013161B2023CCF856
:102184000040DDF808900DF1360B4FF0000A1EE018
:102194008CF80040F5E7ACF80040F2E7CCF80040DA
:1021A400EFE72246E317CCE90023EAE72246E317E8
:1021B400CCE90023E5E7CCF80040E2E7CCF80040A6
:1021C400DFE7DDF808900DF1360B4FF0000ABAF1A5
:1021D400000F00F08E80ABEB0A02B9F1000F00D0C3
:1021E40001329DF8161011F0100F26D00232069B12
:1021F400134411F0400F01D0079A1344002F32DD2D
:10220400FF1A9DF8143013F0040F2CD113F0400F73
:1022140018D0B9F1000F18D029464846B047002815
:102224006BDB0134DDF80890302302930FE00DF1ED
:10223400360BCCE70DF1360BC9E711F0080FD6D0F9
:102244000132D4E72023029301E0302302933B467A
:102254005F1E002B07DD29460298B04700284CDB9F
:1022640001343B46F4E7B9F1000F05D0294648464E
:10227400B047002841DB01349DF81630C3F3001247
:10228400C3F3C003134305D029463020B0470028C8
:1022940033DB01349DF8163013F0100F06D02946B5
:1022A4009DF81700B047002827DB0134069B03F193
:1022B400FF39002B07DD29463020B04700281CDBFE
:1022C40001344B46F3E75B4652462946304605F057
:1022D400B3F9002811DB0444002F07DD2946202030
:1022E400B047002809DB0134013FF5E7C246FFF798
:1022F40069BBC246FFF766BB20460FB0BDE8F08F4E
:10230400C9A600004FF02002EFF3118382F3118875
:10231400BFF36F8F044A0121C2F8401583F311887B
:10232400BFF36F8F002070470090035030B108B5A1
:102334008001034B43F00103984708BD704700BF79
:1023440090A100002DE9F04385B080460F46154664
:10235400124B1B6898470646002400E00134104BDA
:10236400104A9B1AB4EB231F15DA0E4800EB041035
:1023740043685B79002BF1D003952301094AD358B4
:10238400D3F80490B9F1000FE8D000953B463246EB
:102394004146C847E2E705B0BDE8F0830C000220DF
:1023A4006CA100005CA1000008B5044B044A1A604B
:1023B4004FF4004000F008FA08BD00BF0C000220F2
:1023C4007F760000054B064A9B1AB1EBD30F02D26D
:1023D40052F8310070470020704700BF5CA1000034
:1023E4001CA1000008B50B4BC31A1B110133426832
:1023F400137143681960436801225A71064B1B78B4
:102404001BB1054B01221A7008BD044803F0E0FD1E
:10241400F7E700BF5CA10000A8320220AC01022053
:1024240038B5134BD3E8EF2F511CC3E8E01F002845
:10243400F8D1DAB9002405E0042200212846FFF788
:10244400D1FF01340B4B0C4A9B1AB4EB231F0DDA5A
:10245400094D05EB04152B7B002BF2D02301064A12
:10246400D3585B69002BE7D09847E5E738BD00BF38
:10247400B42702206CA100005CA10000104B1B7863
:1024840003B1704710B5FFF7CBFF002400E001341F
:102494000C4B0D4A9B1AB4EB231F0CDA0A4800EBD1
:1024A400041043685B79002BF1D02301064AD3580A
:1024B4001B699847EBE7024B01221A7010BD00BF5D
:1024C400A93202206CA100005CA100000EB400B58A
:1024D40082B0014603AB53F8042B01930348FFF782
:1024E40069FA02B05DF804EB03B07047BF760000F0
:1024F400F0B585B011F0440F05D01A4B1C6834B9FF
:10250400002005B0F0BD1849FFF7E0FFF9E7174BCD
:102514001968B2FBF1F1B1FBF4F5154AA2FB0532DF
:10252400D20A4FF4616606FB1256124BA3FB0673E4
:102534005B0904FB15114FF47A7505FB01F1B1FB3E
:10254400F4F707FB141105FB01F1B1FBF4F4029459
:102554000197C3EB0311A6EB810100910649FFF734
:10256400B5FFCEE7B8270220D0A60000BC27022082
:10257400C5B3A29189888888DCA6000061B108B53A
:102584002AB1064A52F8232012B9054A00E0044A47
:102594000449FFF79BFF08BD704700BF50A7000028
:1025A400F8A6000000A7000011F0100F0BD108B529
:1025B40011F0200F03D00449FFF788FF08BD034939
:1025C400FFF784FFFAE7704784A900004CAD0000D0
:1025D4002DE9F04105460F46164698460699FFF741
:1025E400E3FF0024444505DA23492846FFF76EFF3C
:1025F4000134F7E7002409E01F492846FFF766FF86
:102604000BE01E492846FFF761FF01340F2C0CDC58
:10261400002C02DD14F0070FEED0B442F1D23A5D83
:1026240017492846FFF752FFEFE716492846FFF7F8
:102634004DFF002409E010492846FFF747FF0BE04F
:1026440011492846FFF742FF01340F2C12DC002CFD
:1026540002DD14F0070FEED0B44206D23A5DA2F1C7
:1026640020035E2BECD92E22EAE703492846FFF724
:102674002DFFE9E7BDE8F08128A700000CA70000C2
:1026840004A7000010A7000014A70000F8B5044632
:1026940016461D4649B9002786B10123079A93407F
:1026A40013F0100F16D10C4E09E00C4B079A53F897
:1026B40022200B49FFF70AFF0746EDE7064E06996D
:1026C4002846FFF77FFE024631462046FFF7FEFE0E
:1026D4003844F8BD034EF2E718A7000064A70000D1
:1026E40024A7000020A7000070B584B005461E464C
:1026F400C1F3C203C1F3891011F007040FD1089B81
:10270400324629461048FFF755F994B9304604F08B
:10271400EEFF98B10D492846FFF7D8FE0EE002906F
:1027240001930094134601220999284605F002F802
:10273400E5E722460999284604F0F0FF284605F00B
:1027440020F804B070BD00BFBF7600002CA70000C5
:102754002DE9F04784B007461D460C9E0D9CDDF81C
:10276400388001F0070AC1F3C203C1F38911029151
:102774000193CDF800A013460122414604F0DAFF8C
:1027840081462A460F493846FFF7A0FE74B1254614
:10279400102C28BF1025CDF800804B462A46314620
:1027A4003846FFF715FF2E44641BEFE752464146B7
:1027B400384604F0B3FF384604F0E3FF04B0BDE844
:1027C400F08700BF00A70000074B01221A60074BE7
:1027D400984205D94008044A13685B001360F6E781
:1027E400034B1860704700BFBC27022040420F0013
:1027F400B8270220014B01221A707047AA32022026
:1028040008B518B9044B00221A7008BD41F288308B
:1028140007F0D7FAF9E700BFAA32022038B5044618
:102824000A4B01221A700A4B1B7803B938BD0020E9
:1028340000F092FC0028F9D0044B1B78002BF5D053
:10284400651E2046FFF7DCFF2C46F0E7AA32022083
:10285400AB320220F8B506460D46042706E038469A
:10286400FFF7DCFF9CB90D4B1B7883B12A46314638
:10287400002000F0D7FB04460028F0D1074B1B785A
:10288400002BEFD0013F3846FFF7BAFFEAE714B94F
:10289400024B1B7803B92C462046F8BDAA3202200D
:1028A40008B5034B01221A70024804F06AFF08BD00
:1028B400AB320220A0A7000000B585B00F20029023
:1028C40007980190069800900248FFF741FF05B071
:1028D4005DF804FBA0A7000000B583B00F200190B1
:1028E400049800900248FFF7FFFE03B05DF804FB74
:1028F400A0A7000010B404460023084A12689A42B4
:1029040009DD1A010649096801EB03108A5CA24239
:1029140002D00133F1E7002010BC704750A800003A
:1029240010000220084B1B683BB110B50C46FFF7A2
:10293400E1FF28B12060002010BD6FF00C0070474B
:102944006FF00100F8E700BF1000022000B58BB063
:1029540003AB0093024B04F05DFF0BB05DF804FB86
:10296400DD77000010B5044C2046FEF771FF2046C9
:1029740000F0C0FF002010BD81290000F0B583B035
:1029840007468DF80700022606E0134B01221A7051
:102994001EE004F0F6FF013E104D4FF0FF324FF001
:1029A400FF33284603F020F801220DF1070100202F
:1029B40000F09CFB0446284603F0A0F8002CE4D168
:1029C400054B1B7823B1002EE3D1034B00221A7070
:1029D400384603B0F0BD00BFAC32022084010220AF
:1029E4000048704728280220034BC01A8010034B6C
:1029F40003FB00F0704700BFE8270220B76DDBB689
:102A040038B505460C46FFF7EFFF01464022034860
:102A140005F03AF801462846A04738BDD400022004
:102A240030B583B005460C46FFF7DEFF0146402370
:102A340000932346054A064805F040F8011E01DBD1
:102A440003B030BD2846A047FAE700BF0F7B000063
:102A5400D400022008B510B101280DD008BD002112
:102A6400084804F098FF836813F0070FF6D100219B
:102A7400044804F0F7FFF1E70121024804F0F2FFF3
:102A8400ECE700BFD400022010B54FF02003EFF3B1
:102A9400118483F31188BFF36F8F134A136843F0D3
:102AA4000203136013F0010F08D1002384F311888B
:102AB400BFF36F8F9BB905F03FF810BD4FF0502363
:102AC400D3F80C24D3F80C3412F0010F01D10023F5
:102AD400ECE7FFF785FF04F0B2FF0123E6E70021EE
:102AE400024804F0BFFFE8E738280220D40002209F
:102AF40008B5084BD3E8EF2F22F00201C3E8E01F2A
:102B04000028F7D112F0010F00D008BD05F00AF833
:102B1400FBE700BF3828022070B5064600220121D9
:102B2400052000F095FB052000F074FB114801F02E
:102B3400BDFD114B98421AD105F035FB002403E08A
:102B44000123AB601C44E4B2012C0ED8214630466C
:102B540004F021FF05462146304604F029FF0749C9
:102B640004F083FB0028EBDA00E0002070BD6FF076
:102B74000400FBE7592A00000000AD0BA8A80000E0
:102B840070B50546012807D14FF05023D3F81C3403
:102B940003F00303022B3FD007F00DF920B9304BAB
:102BA4001B789BB1002300E001231C4683B14FF046
:102BB4002003EFF3118683F31188BFF36F8FA4B959
:102BC4004FF050230222C3F808230EE00123ECE760
:102BD4000026F4E70CB3304600F074FB4FF05023AA
:102BE400D3F81835DBB2012B1CD04FF05022D2F8A9
:102BF400183403F00303D2F8182412F4803F26D1CA
:102C04000022002AE6D0022B01D0012DE2D104B328
:102C140086F31188BFF36F8F70BD2120002103F06C
:102C2400A5F9DBE70F4B1B68002BDED00D4B002210
:102C34001A601B684FF050230222C3F818250A4B70
:102C44002022C3F88021094B01221A60CDE701221A
:102C5400D7E74FF050230222C3F80423DCE700BF78
:102C6400AF3202200451005000E100E0085000504F
:102C740010B504460E4B0121D3E8EF2FC3E8E01F43
:102C84000028F9D11AB1631E012B0CD910BD0948D3
:102C940004F08EFE084900234B60CB6001238B6057
:102CA40004F0FFFAEFE72046FFF76AFFEEE700BF04
:102CB4003C280220D4000220D827022020F07F40A4
:102CC400014BC3F84005704700500150014BD3F845
:102CD4004005704700500150024B00221A601B68E7
:102CE400704700BF40510150024B4FF48032C3F88B
:102CF4004423704700500150024B4FF48032C3F814
:102D04000823704700500150024B4FF48032C3F83F
:102D14000423704700500150014BD3F80405704759
:102D24000050015038B5FFF7D7FFFFF7CFFF054D2F
:102D34002C68214604F007FF04442C6003F030FAA9
:102D440038BD00BF4028022038B5FFF7E5FF044630
:102D5400FFF7BCFF0546FFF7BFFF2046FFF7AEFFB6
:102D6400FFF7C2FF2146284604F0EDFE012805D0F6
:102D7400054B4FF40012C3F8802138BD0F2007F033
:102D840020F8FFF7A9FFF3E700E100E038B50F4DA5
:102D94000024C5F80845FFF79FFF0D4B4FF40012C0
:102DA400C3F88021FFF7B0FF22460121152000F06F
:102DB4004FFA152000F02EFA0123064A13602B6007
:102DC4000220FFF755FF204638BD00BF00500150D8
:102DD40000E100E00850015038B5B0F1FF3F07D0E2
:102DE400441E002C07DD0F4B9C4205DD0E4C03E016
:102DF40000F50000F4E70024FFF78EFF0B4B1D687D
:102E0400294604F0A0FEB0F5000F00D300242044AE
:102E14000130B0F5000F00D30348284404F0C9FE84
:102E240038BD00BFFEFF7F00FFFF7F004028022067
:102E340010B54FF02003EFF3118483F31188BFF32F
:102E44006F8FFFF769FF044B196804F07CFE84F36D
:102E54001188BFF36F8F10BD4028022038B54FF0A2
:102E64002003EFF3118583F31188BFF36F8FFFF70E
:102E740053FF054B1C68214604F065FE204485F38E
:102E84001188BFF36F8F38BD4028022008B502486F
:102E940003F02AFA08BD00BFC0A8000038B108B585
:102EA40042683AB1006802F029FE002008BD6FF4C0
:102EB400E04070470048F9E7EA8FFFFF58B108B5D2
:102EC40042685AB100684FF0FF324FF0FF3302F00E
:102ED4008BFD28B908BD6FF4E04070470148F9E75D
:102EE4000148F7E7EA8FFFFFE98FFFFF10B50446BB
:102EF40068B1636853B113F0020F0DD0216809481B
:102F040002F04AFD002323600023636010BD064BDA
:102F14005B6806489847ECE714220021206804F017
:102F240083FFF1E74428022074000220C8A80000AF
:102F340010B5044658B163680BB9236863B12068BF
:102F440006F043FE636843F00103636010BD0F4B5A
:102F54005B680F489847EEE74FF0FF324FF0FF33BE
:102F640021460C4802F0E2FC08B923681BB9074B60
:102F74005B680948984714220021206804F054FF34
:102F8400636843F002036360D9E700BF7400022062
:102F9400C8A8000044280220F0A8000008B5402377
:102FA40014220449044806F0EEFD0449044803F0E1
:102FB400EDF908BD602802204428022030A9000051
:102FC40020A9000010B5114C032323616361104A4A
:102FD400A261104BE3614FF4806323620023A36278
:102FE4006362E36222660C4A62661022A266236769
:102FF400E36663670949E01D04F0C0FE0849204602
:1030040004F0BCFE2023A37110BD00BF602D02207C
:1030140044A90000182E0220082E022050A9000006
:1030240054A900002DE9F84304460E46154600EB6A
:1030340040032D4A02EBC302936A576ABB424BD842
:1030440000EB4002284901EBC202D2F82080A8EB31
:10305400070909F1FF32954204D913449D4216D958
:1030640000203EE0DFF88080631C03EB430308EBA1
:10307400C30358682A463146384404F0B1FE3D443F
:1030840004EB440408EBC4046562012029E0431CFA
:1030940003EB4303144A02EBC30358684A46314620
:1030A400384404F09DFEA7EB08077F1907D104EB11
:1030B40044040D4B03EBC4046762012011E0631C5C
:1030C40003EB4303084A02EBC3033A4606EB090148
:1030D400586804F085FEEAE7DB1B013BAB42C1D232
:1030E4000020BDE8F88300BF602D0220F8B50F462C
:1030F4001646184B451C05EB450503EBC50500EBCF
:10310400400003EBC000C46A012C11D0022C1CD077
:1031140014B100242046F8BD284604F057FD864229
:10312400F8D832463946284604F05CFD3446F1E7C7
:10313400284604F04BFD3446864228BF0446224606
:103144003946284604F04EFDE4E7284604F06CFDB9
:103154000446DFE7602D0220064B00EB400203EB40
:10316400C202926A00EB400003EBC000406A801A7E
:10317400704700BF602D0220094A93689867094987
:103184000968D96708494B6843F080534B600023B2
:1031940083F31188BFF36F8F9368D86F704700BFB4
:1031A4006032022098AC000000ED00E00F498A680C
:1031B4004FF038001044EFF3098C80E8F01F202012
:1031C40080F31188BFF36F8F094F4FF000660A6ACE
:1031D4008A603E60906F0023936780F3118802F148
:1031E400380090E8F01F8CF30988704760320220A1
:1031F40004ED00E01EF0040F0CBFEFF30880EFF3C2
:103204000980816911F8021C0229FFD001B504F07C
:1032140051FD01BD43B2002B08DB00F01F005B0928
:10322400012202FA00F0024A42F82300704700BF6C
:1032340000E100E04209054B53F8222000F01F0092
:10324400012303FA00F01040704700BF00E100E0E2
:10325400013143B2002B08DB4901C9B203F16043D9
:1032640003F5614383F80013704700F00F00490130
:10327400C9B2014B1954704714ED00E080B50446FF
:103284000F4616461D4604F00DFD384631462A46C3
:10329400084B202583F3098863B64FF0000383F3BA
:1032A4001188BFF36F8FA04785F31188BFF36F8F29
:1032B400FEE700BFB05A0220014910220A6070479D
:1032C40010ED00E072B6494081F3118820BF80F30D
:1032D400118862B6704700BF30BFFFF7FDBF00BF63
:1032E40008B50E4B0E4A22F07F029A60BFF34F8F4F
:1032F400BFF36F8FD3F8882022F47002C3F88820BC
:10330400EFF3148323F0040383F3148802F086FAA2
:1033140002F090FA00F022F902F0C8FA00ED00E0A1
:103324000000000001B5EFF30580A0F110004FEAA2
:10333400C0000449014409C99847BDE80140024955
:1033440008470000149F00005D35000004F08FF969
:10335400202080F3118808484FF40061401880F35E
:103364000988EFF314800221084380F31488BFF323
:103374006F8FFFF7B5FF0000B05A0220EFF308800B
:10338400EFF3098101B5724600F094F801BD00BF66
:1033940010B514460F4B9A6A9A6A9B6A13F0020F8F
:1033A4000BD00C4B5A6B9B6A13F0800F05D021B1E4
:1033B400084A936A23F080039362064B9A6A9A6AD6
:1033C4009A6A9A6A42F0FF029A6204F07FFC2070C3
:1033D400002010BD00ED00E010B51446124B9A6AAF
:1033E4009A6A9B6A13F4007F0BD00F4B9A6B9B6A0B
:1033F40013F4004F05D021B10B4A936A23F4004320
:103404009362094B9A6A9B6A13F4807F01D1064B3D
:103414009B6A054A936A43F47F43936204F056FC23
:103424002070002010BD00BF00ED00E0074B9A6A39
:103434009A6A9A6A9A6A9A6A9A6A9A6A9A6A6FEA13
:1034440002426FEA12429A620020704700ED00E0E7
:1034540000230B70144BDA6A12F0020221D110B56A
:103464000446D86A10F0804010D028331B7843B942
:103474000E4B1B785BB90E4B1B889BB26BB9104685
:1034840004E00A4601212046FFF782FF10BD0A46E8
:1034940001212046FFF7A0FFF8E72046FFF7C6FF0B
:1034A400F4E70020704700BF00ED00E029ED00E0E4
:1034B4002AED00E070B58AB00C46224B5968C1F37E
:1034C4000801002383F31188BFF36F8F02F07F4359
:1034D400B3F17F4F15D102F00C03082B14D012F076
:1034E400080F0BD000260DF12702204604F0F0FB54
:1034F40005469DF8273053B10AB070BD0446012635
:10350400F1E700263446EEE700263446EBE72022B6
:10351400214601A804F064FC4EB1089BC3F30802E1
:103524005AB96FEA53236FEA4323089305E0089BD3
:1035340023F4FF7323F00103089301A9284604F040
:10354400B5FBD9E700ED00E0024A536943F01003EC
:103554005361704700ED00E0704700BF002206E0B1
:1035640002F00F01094B0B44202119760132402A45
:103574000ADC53B2002BF3DB03F1604303F5614330
:10358400202183F80013F1E7704700BFFCEC00E052
:1035940008B50E4B9B6883420CD002F0DBFB4FF066
:1035A4002003EFF3118083F31188BFF36F8F06F0CC
:1035B40021FB08BDEFF305832BB1054A536843F0A3
:1035C40080535360E9E702F025FD00BF603202201A
:1035D40000ED00E000B585B0094B0193094B02935F
:1035E4000623ADF80C300121ADF80E1001AB0093A9
:1035F400054B064A684604F0B3FB05B05DF804FBCE
:10360400000002200000000000000420000002204E
:10361400014B024A1A63704790ED00E0AAFF440090
:1036240010B40B6823F01F020C7A04F01F031A4332
:10363400CB6823F01F03640943EA440343F0010306
:1036440002498860CA600B6110BC704790ED00E0CD
:1036540010B504460F2803D8FFF7E2FF204610BD3B
:103664004FF00000012363F302006FF3C500074B22
:10367400074A9B1AC3F3C90363F38F102246054913
:1036840004F007F86FF01500E9E700BF3CA1000063
:103694001CA1000060A900002DE9F04F87B080460E
:1036A4008B4601931446002660E0012363F3020075
:1036B4006FF3C5006B4B6C4A9B1AC3F3C90363F3E6
:1036C4008F103246694903F0E4FF6FF0150416E0E9
:1036D4006FF0150567E04FF00000012363F302006B
:1036E4006FF3C5005F4B604A9B1AC3F3C90363F3CE
:1036F4008F102A465E4903F0CCFF6FF01504204674
:1037040007B0BDE8F08FBA4566D1E8B204F00DFB0E
:103714002BE0584AC2F808C0D36803F01F0320F016
:103724001F001843D06058F80910E0B204F0FDFA05
:10373400044610F1160FE2D0013416E0013B4D4966
:10374400C1F808C00A6902F01F0223F01F031343E3
:103754000B6158F80910E0B204F0E7FA044610F1DE
:10376400160FCCD0013400E0013401365E45C6DAD0
:103774004FEA860958F826506F68002FF5D0019B50
:1037840023B1284604F0BFFA00288ED0D5F800A053
:10379400504604F0E9FA054607EB0A00013804F044
:1037A400E3FA854294D115F1160F94D0631EAB420F
:1037B40091DBAC462F4B9D60DA6822F01F029D60BE
:1037C4001F6947F01F0758F809100B684868184428
:1037D40000F1FF3A934296D093429AD0BA45ADD0C5
:1037E400013B24496546C1F808C00A6902F01F027A
:1037F40023F01F0313430B6158F80910E0B204F0DF
:1038040094FA044610F1160F3FF479AF0130194BC6
:103814009D60D9689DF8102061F304028DF8102092
:103824001B69C3F34203D2B263F347128DF810202D
:1038340058F80920116854682144029113682344FC
:1038440023F01F03A7EB0A071F44013F27F01F07BC
:10385400059702A9C0B2FFF7FBFE044610F1160F4C
:1038640082D14CE73CA100001CA1000088A9000003
:10387400ACA9000090ED00E010B5034C01232278C0
:10388400FFF70AFF207010BDAD320220034B052262
:103894005A60BFF34F8FBFF36F8F704790ED00E016
:1038A400BFF35F8F014B00225A60704790ED00E038
:1038B40038B50E4B1D68102D15D8FFF7F1FFFFF733
:1038C400A7FE0024A54208D9084B596801EB04114E
:1038D4002046FFF7A5FE0134F4E7054B1D70FFF702
:1038E400D5FF002038BD4FF0FF30FBE7E0A9000012
:1038F400AD320220014B1860704700BF3400022033
:1039040038B5194801F060FFE8B1C46882681568E9
:103914004FF420620821A84718B9236823F4807360
:1039240023604FF00000032363F302006FF3C5002C
:103934000E4B0F4A9B1AC3F3C90363F38F100D494F
:1039440003F0A7FE38BD012363F302006FF3C50043
:10395400064B074A9B1AC3F3C90363F38F10064946
:1039640003F097FEEEE700BF08AA00001CA10000C8
:103974001CA1000034AA000010AA000070B443681F
:103984005E68304B13403048834227D012D8062B50
:1039940026D004D9B3F5801F09D1012016E00BB35A
:1039A400022B01D1042011E06FF015003CE06FF010
:1039B400150039E02548834216D0B3F5A00F01D194
:1039C400032003E0B3F5800F39D1022012F0100F69
:1039D4000CD112F0200F29D0012408E00720F5E7CC
:1039E4000620F3E70020F1E70520EFE70324C2F304
:1039F400402312F4807F0CBF0125002512F4007FC0
:103A040005D012F4006F13D001228A40B26001F095
:103A14001F0143EA450343EA840343EA0023803158
:103A24000B4A42F82130002070BC70470024DEE7C6
:103A340012F4806FEBD001228A40F260E7E76FF066
:103A44001500F1E70600F000060010000200400037
:103A540000258450F0B4C5684668E9686A69AB69B2
:103A6400134321EA03010122002011E04FF0020C6C
:103A740003F01F030F4F803357F8234024F44034DE
:103A840044EA0C4447F8234021EA02010130520081
:103A940071B10A42FAD0347A00F01F0343EA4413A6
:103AA4002C69C44014F0010FE0D14FF0030CDFE7A0
:103AB400F0BC70470025845070B4C3684068DA686D
:103AC40059699C69214322EA01024168096918691C
:103AD400484022EA00000123002401E001345B0095
:103AE40072B11A42FAD004F01F01064E803156F822
:103AF400215025F4403546F8215022EA0302EDE72F
:103B040070BC70470025845070B582B000230193C7
:103B14002D4B1C680CB9002109E02C48FFF7CCFFA1
:103B24000190294B00221A601B68F4E70131072930
:103B340026D801F140039B009AB201238B4024480C
:103B4400D0F804030342F1D002F1A04303F550433B
:103B54001B68002BEAD001F5A2731D4850F823001E
:103B6400C0F30420012303FA00F0019B03430193F3
:103B740002F1A04303F5504300221A601B68D5E705
:103B8400019E16B9DCB902B070BD124B596819B167
:103B94000D4649B10D6807E00D4605E06DB12B46B1
:103BA40005B12B6829461D460029EBD08A683240AE
:103BB400F4D04B6805489847F0E72B46F2E70348F2
:103BC400FFF748FFDFE700BF7CD10050140102205B
:103BD40000D000501832022030B4174BD3F80453ED
:103BE400EDB2002300E00133072B22D803F5A272C3
:103BF400114C54F82220C2F304229142F3D125FA45
:103C040003F212F0010FEED001229A40D143D0E822
:103C1400EF4F0C40C0E8E54F002DF8D1064903F5FD
:103C2400A27351F8230020F0010041F82300C1F8E9
:103C3400082330BC704700BF00D000500023072B7E
:103C440042D870B401249C40D0E8EF5F45EA0406F2
:103C5400C0E8EC6FBCF1000FF6D1DD4015F0010FA8
:103C640007D00133DBB2072BECD96FF0120070BC24
:103C7400704703F14000800080B2154D03F5A27334
:103C840055F8236026F4473626F4407645F8236039
:103C940055F82360090201F4F851120402F4403289
:103CA4000A43324345F8232000F1A04202F5504272
:103CB40000201060126855F8232042F0010245F8F4
:103CC4002320C5F80443D2E76FF01200704700BF09
:103CD40000D0005070B50C46C66843681B7A01F0EA
:103CE4001F0545EA431529462148FFF775FF05F0EE
:103CF4001F02204902F1800051F8203023F44033A0
:103D040041F82030F368E34013F0010F2ED07369BB
:103D1400E34013F0010F14D0B369E34013F0010F33
:103D240007D1316921FA04F414F0010F07D00122FC
:103D340000E0032229460E48FFF780FF17E0022225
:103D4400F8E7316921FA04F414F0010F0CD10320CF
:103D54000849803251F8223023F4403343EA0043C7
:103D640041F82230002002E00220F1E7002070BD7B
:103D7400343202200025845070B5C46845682E7A18
:103D840001F01F0545EA4615B2F5A03F25D0B2F56E
:103D9400005F2ED0E56801268E403543E560B2F51C
:103DA400A03F2CD0626901258D4022EA05026261A0
:103DB400B3F5C02F28D0A26901258D4022EA05025F
:103DC400A261B3F5802F24D0236901228A4023EA1B
:103DD40002032361FFF77EFF70BD05F01F058035E8
:103DE4000E4E56F8255015F0010FD0D06FF022007A
:103DF400F2E7E56801268E4025EA0605CEE762690A
:103E040001258D402A43D2E7A26901258D402A432A
:103E1400D6E7236901228A401343DAE70025845058
:103E240008B50B4B1B780BB1002008BD084B0122D1
:103E34001A70002205210D20FFF70AFA0D20FFF762
:103E4400E9F9044B4FF00042C3F80423ECE700BF48
:103E5400AE32022000D00050034BD3F8003413F0EC
:103E6400010FF9D0704700BF00900350024B0B6064
:103E740001231360704700BF3832022000487047A6
:103E84000CAB000070B50C46154604F0C1F90646AB
:103E940004F0BAF9A04214D9002C12DBA84210D3C2
:103EA400631998420DD3B4FBF6F306FB1343F3B93D
:103EB400B5FBF6F306FB1353CBB9AE422DD9002064
:103EC40014E04FF00000012363F302006FF3C50018
:103ED400144B154A9B1AC3F3C90363F38F102B4683
:103EE4002246124903F0D5FB6FF0150070BD4FF068
:103EF4000000012363F302006FF3C500094B0A4A73
:103F04009B1AC3F3C90363F38F102B462246084957
:103F140003F0BFFB6FF01500E8E72946204604F0E4
:103F240018F8E3E72CA100001CA1000088AA0000F7
:103F3400A8AA000070B50C4616461D4604F064F9A4
:103F440084420FD2002C0DDB85420BD82B198342FF
:103F540008D814F0030F1BD115F0030F18D16DBB53
:103F6400002014E04FF00000012363F302006FF31C
:103F7400C500154B154A9B1AC3F3C90363F38F108D
:103F84002B462246124903F084FB6FF0150070BDE6
:103F94004FF00000012363F302006FF3C5000A4BE6
:103FA4000A4A9B1AC3F3C90363F38F102B462246B4
:103FB400084903F06EFB6FF01500E8E72A46314626
:103FC400204603F0E5FFE2E72CA100001CA100005D
:103FD40088AA0000C8AA000070B50C4616461D4603
:103FE40004F012F9844209D2002C07DB854205D87B
:103FF4002B19834202D8BDB9002014E04FF0000011
:10400400012363F302006FF3C5000B4B0B4A9B1AA9
:10401400C3F3C90363F38F102B462246084903F008
:1040240038FB6FF0150070BD2A462146304603F078
:10403400D7FE0020F7E700BF2CA100001CA1000060
:1040440088AA000010B504F0E7F8034C206004F0DF
:10405400DFF86060002010BD3832022043681A681F
:10406400B1F5164F6FD03AD8B1F5165F6ED00AD9B4
:10407400B1F5E14F75D024D947F6122399422BD1DB
:104084004FF4000313E0B1F5966F61D007D9B1F591
:10409400166F63D0B1F5965F10D13C4B07E0B1F5D4
:1040A400967F58D0B1F5167F05D14FF41C33C2F872
:1040B4002435002070476FF0150070476FF015002D
:1040C4007047B1F5615F4ED0B1F5964F01D1304BD9
:1040D400EDE76FF0150070476FF015007047B1F50C
:1040E400613F42D009D9B1F5612F46D01FD9294B80
:1040F400994248D14FF08053D9E7B1F5963F37D074
:1041040005D9B1F5E13F0FD14FF0EB73CFE74DF691
:10411400C02399422ED0B1F5614F02D14FF46B0305
:10412400C5E76FF0150070476FF0150070471A4B24
:10413400994225D0B1F5E12F02D14FF0E863B6E7FB
:104144006FF0150070474FF41D03B0E7134BAEE753
:104154004FF49E23ABE74FF4A033A8E74FF41D239D
:10416400A5E70F4BA3E70F4BA1E74FF06C739EE756
:104174000D4B9CE74FF4650399E74FF0706396E7A6
:104184004FF0806393E76FF01500704700B01300A1
:1041940000A04E0040420F0090D0030000502700C2
:1041A40000C0750000F03A0000903A012DE9F84390
:1041B40005468846C76805F0FEFD20B9264B1B78E6
:1041C400C3B1002200E001226B68D3F800904AB327
:1041D4004FF02003EFF3118483F31188BFF36F8F43
:1041E4002646284603F099FF48BB84F31188BFF3A1
:1041F4006F8FEDE70122E7E786B14FF02003EFF37D
:10420400118483F31188BFF36F8F2646284603F089
:1042140084FFA0B984F31188BFF36F8F212000219C
:1042240001F0A4FE6424284603F077FF0646002824
:10423400E2D1012003F0B3FF013CF4D1DCE73946BD
:1042440001F80C8F0122484603F079FF86F31188A8
:10425400BFF36F8FBDE8F883AF32022038B505464F
:104264000C4601F10E0000F021FB134B98420ED1D5
:10427400A37B43F00043C5F8A031C5F88C30A27B82
:10428400012393400D4AC2F80435002038BD4FF095
:104294000000012363F302006FF3C500084B094AD1
:1042A4009B1AC3F3C90363F38F10074903F0F1F9B1
:1042B4006FF00400EAE700BF0000AD0B007001508E
:1042C40054A100001CA1000014AB00002DE9F04132
:1042D40006460C4643681D68C7680023C5F80035C8
:1042E40038600B6803F01F02012393403A4A93603D
:1042F4000B6803F01F038033032142F82310636823
:10430400B3F1FF3F05D003F01F038033002142F8CF
:10431400231022686368C5F80C25C5F81435A36812
:10432400B3F1FF3F06D003F01F0380332A4A002174
:1043340042F82310E368B3F1FF3F0DD003F01F03ED
:10434400012202FA03F3244A9360E36803F01F0393
:104354008033032142F82310E268A368C5F80825D6
:10436400C5F81035F1680431304603F06EFE80461E
:1043740030BB73689B7933BB0823C5F80035636889
:10438400B3F1FF3F0CD00023C5F81031D5F810313C
:1043940007F10D03C5F834350123C5F838352B6012
:1043A40073689B791BB94FF48073C5F804330C37D9
:1043B400C5F844750023C5F848350123AB60EB60AC
:1043C4004046BDE8F08139462846FFF747FF0028FC
:1043D400D2DA8046F4E700BF0025845030B585B0BA
:1043E40005460A4B6C460FCB84E80F0000220121DE
:1043F4000820FEF72DFF0820FEF70CFF00222146BF
:104404002846FFF763FF05B030BD00BF70A1000070
:1044140030B585B005466C46094B0FCB84E80F00D8
:10442400002201210920FEF713FF0920FEF7F2FE06
:10443400002221462846FFF749FF05B030BD00BFE2
:1044440080A10000C0F30E03BBB9C1F30E02BAB9D8
:10445400B2EBD13F17D230B402EBD033DBB203F569
:10446400C0730A4C40F2151544F823500132B2EBE4
:10447400D13FF1D3002030BC70476FF01500704776
:104484006FF0150070470020704700BF00300050E7
:10449400034B1B68092B01D0002070470120704793
:1044A4003001FF00064B1B68064A1268092B01D035
:1044B40000207047012A01D0002070470120704776
:1044C4003001FF003401FF00064B1B68064A1268E6
:1044D400092B01D000207047012A01D00120704728
:1044E400002070473001FF003401FF00064B1B68B9
:1044F400064A1268092B01D000207047012A01D016
:1045040000207047012070473001FF003401FF0094
:10451400034B1B68092B01D0002070470120704712
:104524003001FF00044B1B6AB3F1FF3F01D00020B0
:1045340070470120704700BF0080FF00044BDB6917
:1045440013F0010F01D1002070470120704700BF14
:104554000080FF00014B024A1A6070475800022095
:104564000090D00308B5FFF793FF30B14FF050230C
:104574000022C3F81421C3F81821FFF793FF30B1C8
:104584000123424A1360A2F63822C2F87835FFF7B5
:104594009BFF18B13E4B0122C3F87825FFF7A6FF15
:1045A40010B13C4B0E221A60FFF7B2FF28B13A4B10
:1045B40000221A60043301221A6000220BE002F187
:1045C40060034FF47F0151F83310DB0003F57F03E0
:1045D4005B680B600132FF2A08D802F160034FF4D4
:1045E4007F0151F83330B3F1FF3FE8D1FFF7A6FF65
:1045F40060B9FFF797FF48B9284AD2F88C3043F4E2
:104604004063C2F88C30FFF7A5FF08BD244BD3F8F4
:104614000034012BFAD1224B0122C3F80425204B8C
:10462400D3F80034012BFAD1FFF788FF48B11D4AB3
:10463400D36923F00103D361194BD3F80034012B60
:10464400FAD1FFF76FFF58B1164A136A23F0FF033C
:1046540043F020031362124BD3F80034012BFAD138
:104664000F4B0022C3F804250D4BD3F80034012B63
:10467400FAD1BFF34F8F0949CA6802F4E0620A4BCA
:104684001343CB60BFF34F8F00BFFDE7384A0050A0
:1046940000400050E4AE03500C47005000ED00E031
:1046A400009003500080FF000400FA05054B1B79BD
:1046B4002BB9044B186001221A7103487047034850
:1046C400704700BF403202200000AD0B0C00AD0B60
:1046D40010B1012825D070474FF05022D2F8183479
:1046E40003F00303D2F8182412F4803F11D14FF0E1
:1046F40050230122C3F818250F4B00221A601B68AF
:104704004FF050230222C3F80423083301221A6015
:104714007047022BEBD14FF050230222C3F8182527
:10472400EAE7064B00221A601B684FF0502301226F
:10473400C3F804231A60704704510050005100501C
:1047440070B5044610B1012812D070BD4FF050234B
:104754000222C3F8082303F5827300221A601B683F
:10476400334B01221A60012C0FD042F210754BE03A
:1047740001234FF05022C2F8083302F58072002161
:10478400116012682B4A1360EDE7254642F2107659
:1047940014E04FF05023D3F8185405F00305D3F870
:1047A400183413F4803F1CD10023002BCDD0012DED
:1047B400CBD1012003F0F3FC013EC6D0002CE8D09D
:1047C400012C01D00023F0E74FF05023D3F80C5410
:1047D40005F00105D3F80C3413F4803F03D1002312
:1047E400E3E70123E1E70123DFE74FF05023D3F8A8
:1047F400183413F4803F16D10023002BA5D00120D8
:1048040003F0CDFC013DA0D0002CEED0012C01D052
:104814000023F2E74FF05023D3F80C3413F4803F15
:1048240003D10023E9E70123E7E70123E5E700BF1C
:104834000C5000500450005008B5194B1B685BB174
:10484400174B002018601B684FF050230122C3F857
:104854000823144B1B689847134B1B68B3B1124BC6
:1048640000221A601B684FF05022D2F8183403F06B
:104874000303D2F81824012B09D04FF0502302224D
:10488400C3F80823074B1B680120984708BD4FF065
:1048940050230222C3F81825083301221A60F5E7D1
:1048A40000510050403202200451005030B40D4BEE
:1048B4001D68E94389B291B1002321FA03F212F091
:1048C400010F02D10133DBB2F7E7012202FA03F44C
:1048D4002543044A15600370034830BC70470348FD
:1048E400FBE700BF483202200000AD0B0200AD0B15
:1048F400034B0022C3F88425C3F80425704700BF86
:1049040000900350034B0122C3F88425C3F8042507
:10491400704700BF00900350034B0222C3F8842564
:10492400C3F80425704700BF00900350044BD3F82C
:10493400083413F0010FF9D00160BFF35F8F7047A3
:104944000090035010B5044603F046FC08B908482B
:1049540010BDFFF7E1FF4FF0FF332360054BD3F8A1
:10496400003413F0010FF9D0FFF7C2FF0248EFE75C
:104974000A00AD0B009003500000AD0B0268124B0F
:104984009A4215D1C269A3F11023A3F1EF139A42FD
:1049940010D18368012B0FD8C36813B10269934205
:1049A4000CD0436963B1826993420BD000207047F5
:1049B4000120704701207047012070470120704793
:1049C400002070470120704755AA00FF70B5114BB5
:1049D4009D68B5B12846FFF7D1FF064698B9EB6844
:1049E40013B10126304670BD2C69002CFAD0204644
:1049F400FFF7C4FF48B9E368AB4208D125462469F0
:104A0400F3E70126EEE70126ECE70126EAE70126B3
:104A1400E8E700BF4C320220002800F0928038B54D
:104A24000546484B1B68002B6CD0464A9268002A06
:104A340068D0834204D8434A52681344834203D85B
:104A4400414B1B6801209847A5F120042046FFF73D
:104A540095FF18B13C4B1B680120984755F8183C4A
:104A6400012B03D0384B1B6801209847002345F8DD
:104A7400183C55F8143CCBB19A68002A43D155F838
:104A84001C2C59680A4420325A6055F8143C55F8D5
:104A9400102C1A6155F8145C2B6903B1DD602022D7
:104AA4000021204603F0C0F923462C4625691DB396
:104AB400AA680ABB6B6862681344203363602B697D
:104AC400236163690BB323B3A2699A61A3690BB130
:104AD40062695A616B696361AA69A261EBB19C6105
:104AE400A36903B15C61236903B1DC602022002166
:104AF400284603F099F92B4693B1124B1B6913F026
:104B0400020F15D138BD0023D0E7A269002ADAD1FB
:104B1400E0E7A2690B4BDA60D8E70A4BDC60DFE719
:104B2400084BDB68A36103B15C61064BDC60E4E71E
:104B3400FFF74CFF0028E5D0034B1B680120984782
:104B4400E0E770474C3202206000022070B54F4B02
:104B5400DC681D68002D5AD09D68002D57D001FBDC
:104B640000F6002800F08880002900F08780B6FB5A
:104B7400F0F0884240F0848016F1040F00F2828045
:104B840016F0030F08D026F00305043534B163682A
:104B9400AB4203D2A469F9E73546F7E7002C73D09A
:104BA400A3681BB13A4B1B68012098476268521BEB
:104BB400232A2ED905F120016318203A5A600022D5
:104BC4009A60DC6022691A61324860503249D961C6
:104BD40002B1D36062695A61A1699961002A3FD028
:104BE40093619A6902B153610122A26065602361F5
:104BF40000236361A361254B1B6913F0010F32D1BC
:104C040004F1200532460021284603F00DF9284618
:104C140070BD0123A3606369ABB1A2699A61A36902
:104C24000BB162695A6100236361A361174B1B696D
:104C340013F0010F0BD104F1200532460021284660
:104C440003F0F2F8E3E7A269104BDA60E7E7FFF755
:104C5400BDFE0028EFD00E4B1B6801209847EAE701
:104C64000A4AD360BDE7FFF7B1FE0028C8D0084B5D
:104C74001B6801209847C3E70025C8E70025C6E75D
:104C84000025C4E70025C2E72546C0E74C320220D0
:104C94006000022055AA00FF669911EE38B505465A
:104CA4000C4614220021134803F0BEF8124913489D
:104CB40000F038F8232C1CD915F0030304D01C444D
:104CC400043CC3F104031D4422460021284603F09A
:104CD400ABF8084B1D605C609D60203C6C609A687A
:104CE400074911609A68A1F11021A1F1EF11D16176
:104CF400DA6038BD4C3202201D4A0000514B0000DE
:104D040055AA00FF08B5024B1B68984708BD00BFB1
:104D14005C00022008B5024B1B68984708BD00BF21
:104D240064000220024B1860024B19600020704797
:104D34005C0002206400022031B108B50A46034B2E
:104D44001B680021984708BD704700BF6800022017
:104D5400F8B504460D46476800F10806304603F0EE
:104D640058FE874251D16368B3F5807F4FD8002144
:104D7400304603F0D1FF00282ADD0021304603F03D
:104D840020FE28B3CDB104F12C060021304603F0F7
:104D9400C3FF00281EDD0021304603F012FEC8B117
:104DA40004F138060021304603F0B6FF002811DD77
:104DB4000021304603F005FE60B1002104F1140027
:104DC40003F0AAFF002824DD35B9ADB92846F8BDA3
:104DD400124DFBE7114DF9E7002104F1440003F003
:104DE4009BFF002806DD002104F1500003F094FF2E
:104DF4000028EADC094DE9E7002104F15C0003F036
:104E04008BFF002807DD0025E0E7044DDEE7034DB6
:104E1400DCE7024DDAE7014DD8E700BF80BFFFFFB2
:104E240070B5044600221146FFF792FFE0B906462A
:104E340004F10805284603F0D5FD7F2816D914345B
:104E44000021204603F0BDFD60B1204603F0CAFDF9
:104E5400012807D92946204603F016FF002801DA65
:104E6400304670BD024EFBE7014EF9E7004EF7E70E
:104E740000BEFFFFF0B587B004460D46164600227B
:104E84001146FFF765FF98BB03A803F009FD6268AC
:104E9400294603A803F0C3FD054630B103A803F077
:104EA40005FD15BB284607B0F0BD04F108052946E9
:104EB40003A803F0E9FE002802DB6FF00305EDE729
:104EC400676804F1680300932B4604F1140203A9F4
:104ED400084604F096FA05460028DFD13A463146E2
:104EE40003A803F0CBFD0546D8E7A5F58545D9E72A
:104EF400004DD7E780BFFFFF0023036043600B46EC
:104F0400B9B9194A8260194AC260194A0261194A38
:104F14004261194A8261194AC261194A026202F164
:104F24007452A2F52302A2F69242426283660020E2
:104F34007047144A8260144AC26002F1794202F551
:104F4400740202F501620261104A4261104A8261F0
:104F540002F1D14202F5C01202F51E62C2610D4A8D
:104F640002620D4A4262E1E767E6096A85AE67BB01
:104F740072F36E3C3AF54FA57F520E518C68059B37
:104F8400ABD9831FD89E05C107D57C3639590EF796
:104F9400310BC0FFA78FF964A44FFABE2DE9F04F7F
:104FA400D1B00790002306E09A1C50F8222008ACE8
:104FB40044F823200133072BF6D900220F2A11D8F5
:104FC40011F8224001EB820043781B0443EA046396
:104FD400847843EA0423C078034310A840F82230BD
:104FE4000132EBE74FF0000E42E10F9B0C9E4FEABB
:104FF400F62181EAB61181EA766119440E9C0D9876
:1050040084EA0003334063401944DFF8348758F8D6
:105014002E3019440DF1400C5CF82E301944089DD3
:105024004FEA753A8AEAB50A8AEAB55A099F05EA47
:1050340007030A9A45EA070902EA090943EA090348
:105044009A440B9B01EB030951444FEAF92383EA89
:10505400B91383EA79631C4486EA000309EA03036B
:1050640043401C440EF1010A58F82A301C445CF8F1
:105074002A301C444FEA713383EAB10383EAB15303
:1050840005EA010A45EA010B07EA0B0B4AEA0B0A97
:10509400534422441C444FEAF22383EAB21383EAC2
:1050A4007263184486EA09031340734018440EF1EE
:1050B400020A58F82A3018445CF82A3018444FEA97
:1050C400743383EAB40383EAB45301EA040A41EA79
:1050D400040B05EA0B0B4AEA0B0A53440744184431
:1050E4004FEAF72383EAB71383EA77631E4489EA16
:1050F40002033B4089EA03031E440EF1030A58F8F5
:105104002A301E445CF82A301E444FEA703383EA86
:10511400B00383EAB05304EA000A44EA000B01EA4C
:105124000B0B4AEA0B0A534435441E444FEAF52359
:1051340083EAB51383EA7563994482EA07032B4033
:10514400534099440EF1040A58F82A304B445CF851
:105154002A904B444FEA763989EAB60989EAB65966
:1051640000EA060A40EA060B04EA0B0B4AEA0B0AB9
:10517400D14419440F914B440B934FEAF12989EA26
:10518400B11989EA71694A4487EA050901EA0909FA
:1051940087EA090991440EF1050A58F82A204A447D
:1051A4005CF82A904A444FEA733A8AEAB30A8AEAD4
:1051B400B35A06EA030946EA030B00EA0B0B49EA71
:1051C4000B09CA4404EB0209CDF8389052440A9200
:1051D4004FEAF92484EAB91484EA7964274485EA15
:1051E400010409EA04046C403C440EF1060A58F830
:1051F4002A703C445CF82A703C444FEA723787EAD0
:10520400B20787EAB25703EA020A43EA020B06EA44
:105214000B0B4AEA0B0A574420440D903C44099472
:105224004FEAF02787EAB01787EA70673D4481EABE
:10523400090900EA090981EA090129440EF1070074
:1052440058F8205029445CF8200001444FEA743097
:1052540080EAB40080EAB45002EA04052243134011
:105264002B4303440E440C960B4408930EF1080E92
:10527400BEF10F0F7FF6B9AE10263F2E00F24D821D
:105284000F9A0C9B4FEAF32787EAB31787EA7367F1
:105294003A440E980D9D80EA05071F4047403A4462
:1052A400DFF89CB45BF826701744B31E1A4610ABA3
:1052B400049253F822204FEAF24484EA724484EAC6
:1052C4009224F21F53F822201444A6F10F0A53F833
:1052D4002AC04FEABC4282EAFC1282EADC0214448D
:1052E400A6F1100253F82220224443F826203A441F
:1052F40008994FEA713C8CEAB10C8CEAB15E099FC3
:105304003C460C400A990091089941EA070C00991F
:1053140001EA0C0C44EA0C0CF4440B9C1444624463
:105324004FEAF42888EAB41888EA746880440C992F
:1053340081EA050904EA090985EA0909C844711CD6
:105344005BF821008044701E059053F820004FEA5A
:10535400F04C8CEA704C8CEA902CB01F53F820006F
:105364008444A6F10E0E53F82E904FEAB94080EA19
:10537400F91080EAD900604453F82A904844029115
:1053840043F8210008EB00094FEA723888EAB208B2
:1053940088EAB258089901EA020041EA020C01972E
:1053A40007EA0C0C40EA0C0CC444009800EB090812
:1053B400E1444FEAF82080EAB81080EA78600544B6
:1053C4000C9981EA040008EA000048400544B01C36
:1053D40001465BF82000054453F826004FEAF04CE0
:1053E4008CEA704C8CEA902C701F53F82000844493
:1053F400A6F10D0A53F82A004FEAB04053F82A7078
:1054040080EAF71080EAD700604453F82EC0604465
:10541400039143F8210005444FEA793C8CEAB90C26
:105424008CEAB95C02EA090042EA090E089901EA29
:105434000E0E40EA0E008444019F07EB050E05EBB7
:105444000C0700974FEAFE2080EABE1080EA7E60D7
:105454000C990D1884EA08010EEA010161406818EC
:10546400F71C5BF827100144029D53F825004FEA0E
:10547400F04585EA704585EA9025301F53F82000F1
:1054840005440195A6F10C0C53F82C004FEAB040EA
:1054940053F82C5080EAF51080EAD500019D284489
:1054A40053F82A502844069743F8270001440098EB
:1054B4004FEA7035074685EAB00585EAB05509EA32
:1054C400000049EA070A02EA0A0A40EA0A00054417
:1054D400089800EB010A294401914FEAFA2585EA6C
:1054E400BA1585EA7A652C4488EA0E050AEA0505A8
:1054F40088EA05052544341D02945BF8240005441C
:10550400039953F821404FEAF44080EA744080EA5A
:105514009420F41E53F824402044A6F10B0753F8BA
:1055240027104FEAB14484EAF11484EAD104044414
:1055340053F82C002044029943F8210005440199B2
:105544004FEA713C8CEAB10C8CEAB15C00980446D9
:105554000C4001460198084309EA000020436044D6
:105564002A440F9228440B904FEAF22C8CEAB21C86
:105574008CEA726CC4448EEA0A08039202EA0808B0
:105584008EEA0808C444741D21465BF82440A444F0
:10559400069D53F825504FEAF54484EA754484EA9D
:1055A4009524049A53F822502C44A6F10A0853F87F
:1055B40028204FEAB24585EAF21585EAD20525444A
:1055C40053F827402C44049143F8214064444FEAA3
:1055D400703787EAB00787EAB057019901EA0005F6
:1055E40041EA000C009901EA0C0C45EA0C052F4431
:1055F40009EB040CCDF838C03C440A944FEAFC276C
:1056040087EABC1787EA7C677744039D8AEA050E1C
:105614000CEA0E0E8AEA0E0E774406F106095BF8D0
:1056240029502F44029D53F825504FEAF54E8EEA37
:10563400754E8EEA952E059A53F82250AE44A6F183
:105644000902029253F8225029464FEAB54585EAE9
:10565400F11585EAD105754453F828E0754443F8FB
:1056640029502F444FEA743585EAB40585EAB455C8
:1056740000EA040940EA040E019A02EA0E0E49EA1D
:105684000E09A9440099CD190D954F4409974FEA85
:10569400F52E8EEAB51E8EEA756ED644039A82EA1A
:1056A4000C0C05EA0C0C82EA0C02724406F10708A1
:1056B4005BF8285002EB050E049953F821504FEA89
:1056C400F54282EA754282EA952253F826100A448A
:1056D400A6F1080553F825C04FEABC4585EAFC1538
:1056E40085EADC052A44029D53F825502A4443F8F0
:1056F400282072444FEA773383EAB70383EAB75327
:1057040004EA070527433840284318440199114403
:105714000C91104408900836AFE50023079809E07F
:1057240008AA52F82340991C50F82120224440F83A
:1057340021200133072BF3D9002051B0BDE8F08FAD
:1057440084AB000070B50646114B53F8205000E0BE
:105754000835731C0E4A52F82330AB4217D96C68D3
:105764002B68204698470028F2D0002CF0D0094935
:10577400094BE41A2411600904F01F0451F8203085
:10578400012202FA04F41C4341F82040E0E770BD12
:1057940084AC000044010220D4000220084BC01A4B
:1057A4000011420900F01F00064B53F82220012388
:1057B40003FA00F002420CBF18460020704700BFF5
:1057C400D40002204401022038B50546114C00E003
:1057D4001034114B9C4208D02046FFF7DFFF00280D
:1057E400F6D02368AB42F3D112E00A4C00E0103447
:1057F400094B9C420BD02046FFF7D0FF0028F6D07F
:105804002168284602F0CBFA0028F0D100E00024F9
:10581400204638BDD40002204401022008B50348C4
:10582400034A121A002102F0FFFA08BDC001022047
:10583400B032022008B50648064A121A064902F098
:10584400CFFA064A0649074802F0CAFA08BD00BF63
:1058540000000220BC01022070AD00000000000026
:1058640070AD00000000022008B50B4B01221A7035
:105874000220FFF767FF094A09490A4801F00CFCB6
:105884000320FFF75FFFFAF7D9FD074A137B23F0E4
:105894000103137308BD00BFAF3202201CA7000030
:1058A4009CAC0000BCAC0000C001022008B5FCF7B1
:1058B4007BFD124B83F30888114CE02384F82230DB
:1058C4000025E57725766576A576636A43F4E023BB
:1058D4006362FDF739FEFDF7EFFC4FF0FF33A3627F
:1058E400E3622846FFF72EFF0120FFF72BFF2B462C
:1058F4002A4629460348FDF7C1FC00BFB0620220D6
:1059040000ED00E06D58000010B5064C0020064B79
:105914009C4206D2204604F01FF9002801DB1C3407
:10592400F5E710BD4801022048010220D0B582B03D
:105934000C461F464FF02003EFF3118183F31188C7
:10594400BFF36F8F43696BB1236043691B68436185
:10595400836901338361002081F31188BFF36F8F62
:1059640002B0D0BD164656EA070304D100232360D3
:105974006FF00B00F0E7CDE900670246044800F041
:105984008DFA0028ECD1034B9B685B692360E7E741
:10599400603202206032022070B504460D464FF09A
:1059A4002003EFF3118683F31188BFF36F8F04F0A4
:1059B400C7F950B12A680021C167426104F030F987
:1059C4003146084800F0E8F870BD2B6862691A6037
:1059D4002B686361A369013BA36186F31188BFF35C
:1059E4006F8FF1E7603202202DE9F04383B0044663
:1059F4001D464FF02003EFF3118783F31188BFF3A3
:105A04006F8FC16899B900294FD13A4B9B6893F9BC
:105A14000E3023610131E160364B9B68A36087F34C
:105A24001188BFF36F8F002003B0BDE8F0831646E2
:105A34008268304B9B689A42E5D055EA06010CBF58
:105A44004FF001084FF0000831D092F90E9049460A
:105A540093F90E0004F0A5F881452FDC4FF00009FE
:105A64000096019522463946234800F017FA00288B
:105A7400DAD04FF02003EFF3118583F31188BFF3DD
:105A84006F8F23689C421FD0F3B1216993F90E00F4
:105A940004F087F80146204604F08CF8B0B9B9F157
:105AA400000F15D04FF0010812E02369B1E787F326
:105AB4001188BFF36F8F6FF00F00B5E701462046E2
:105AC40004F078F88146CBE72169E4E74FF0010858
:105AD400B8F1000F06D185F31188BFF36F8F6FF013
