:020000021000EC
:100200002818002035230100BF5401009523010068
:1002100095230100952301009523010095230100FA
:10022000000000000000000000000000512101005B
:10023000952301000000000009210100AD530100D9
:10024000F5220100F5220100F5220100F52201004E
:10025000F5220100F5220100F5220100F52201003E
:10026000F5220100F5220100F5220100F52201002E
:10027000F5220100F5220100F5220100F52201001E
:10028000F5220100F5220100F5220100F52201000E
:10029000F5220100F5220100F5220100F5220100FE
:1002A000F5220100F5220100F5220100F5220100EE
:1002B000F5220100F5220100F5220100F5220100DE
:1002C000F5220100F5220100F5220100F5220100CE
:1002D000F5220100F5220100F5220100F5220100BE
:1002E000F5220100F5220100F5220100F5220100AE
:1002F000F5220100F5220100F5220100F52201009E
:10030000F5220100F5220100F5220100F52201008D
:10031000F5220100F5220100F5220100F52201007D
:10032000F5220100F5220100F5220100F52201006D
:10033000F5220100F5220100F5220100F52201005D
:10034000F522010000000000000000000000000095
:10035000000000000000000000000000000000009D
:10036000000000000000000000000000000000008D
:10037000000000000000000000000000000000007D
:10038000000000000000000000000000000000006D
:10039000000000000000000000000000000000005D
:1003A000000000000000000000000000000000004D
:1003B000000000000000000000000000000000003D
:1003C000000000000000000000000000000000002D
:1003D000000000000000000000000000000000001D
:1003E000000000000000000000000000000000000D
:1003F00000000000000000000000000000000000FD
:10040000DEE61E284CBBCE8F025B00003C000000E5
:10041000007E000001000000000201000002010057
:10042000FFFF02910000000000000000000000003B
:0C043000000000000000000000000000C0
:10043C0053B94AB9002908BF00281CBF4FF0FF313F
:10044C004FF0FF3000F06CB9ADF1080C6DE904CE43
:10045C0000F006F8DDF804E0DDE9022304B0704793
:10046C002DE9F047089D04468846002B7DD18A4231
:10047C0017463FD9B2FA82F242B1C2F12000914044
:10048C00974024FA00F0944040EA01084FEA174CD8
:10049C00230C1FFA87FEB8FBFCF60CFB168106FB3F
:1004AC000EF043EA0143984205D9FB1802D2984258
:1004BC0000F22481013E191AA3B2B1FBFCF00CFB33
:1004CC00101100FB0EFE43EA0144A64505D93C1968
:1004DC0002D2A64500F20F81013840EA0640A4EB97
:1004EC000E0400261DB1D4400023C5E9004331465B
:1004FC00BDE8F08702B9FFDEB2FA82F2002A50D1D1
:10050C00CB1B4FEA174E1FFA87F80126210CB3FBC1
:10051C00FEFC0EFB1C300B4608FB0CF941EA0041BB
:10052C0089450AD979182CBF01230023894502D9A2
:10053C00002B00F0D9800CF1FF3CA1EB0901A3B218
:10054C00B1FBFEF00EFB101108FB00F843EA01446E
:10055C00A04505D93C1902D2A04500F2C98001384A
:10056C00A4EB080440EA0C40BCE78B4209D9002DEF
:10057C0000F0B1800026C5E9000130463146BDE8E7
:10058C00F087B3FA83F6002E46D18B42C0F0A680DA
:10059C00824240F2A3803046002DA8D0C5E9004825
:1005AC00A5E79740C2F1200301FA02F04FEA174E7B
:1005BC00D94024FA03F31FFA87F894400343B1FBA4
:1005CC00FEF01E0C0EFB101100FB08FC46EA01416C
:1005DC008C4509D979182CBF012600268C4502D9E7
:1005EC00002E00F093800138A1EB0C019BB2B1FB03
:1005FC00FEF60EFB161106FB08FC43EA01418C4586
:10060C0005D9791802D28C4500F28780013EA1EB06
:10061C000C0346EA004679E7C6F1200703FA06F414
:10062C0002FA06FC01FA06FEFA4020FA07F8F94035
:10063C0000FA06F3224348EA0E044FEA12484FEA46
:10064C00144E1FFA82F9B1FBF8FA08FB1A110AFBD7
:10065C0009F04EEA014E70450AD912EB0E0E2CBF72
:10066C0001210021704501D9002952D00AF1FF3A2D
:10067C00AEEB000EA4B2BEFBF8F008FB10EE00FBD4
:10068C0009F944EA0E4EF14505D912EB0E0E01D2D2
:10069C00F14538D8013840EA0A40AEEB090EA0FB10
:1006AC000C89CE4541464C4602D306D1434504D273
:1006BC000138B8EB0C0169EB020415B35A1A6EEB56
:1006CC00040EF2400EFA07F72EFA06F30026174333
:1006DC00C5E900730BE72E46284608E7841A61EB40
:1006EC0003010120884657E7ACF1020C394424E79A
:1006FC0002383C4434E702383C44EEE6023E3B44CC
:10070C00D9E62E46F3E602389644C4E7023839445B
:10071C006AE7AAF1020A9644AAE7023E394476E750
:10072C00704700BF2DE9E04F2746A046A146A246E0
:10073C00A346A4462DED108B4FF0000545EC185B3D
:10074C0045EC195A45EC1A5A45EC1B5A45EC1C5A07
:10075C0045EC1D5A45EC1E5A45EC1F5AF1EE105A49
:10076C004FF66076C0F6FF763540E1EE105A84F312
:10077C00008825462646A447BDEC108BBDE8E08FCB
:10078C000B6801330B60014B1B68184700000020FD
:10079C0007B50B46002102460191034801A900F060
:1007AC0065FA03B05DF804FB8D0701002DE9F74FE6
:1007BC00B0F81890044619F0080893460ED0012999
:1007CC000CBF49F0100949F02009A0F818908BF3E0
:1007DC001188BFF36F8F03B0BDE8F08FDFF898A1DD
:1007EC0009F00709022907D1204604F002FB002872
:1007FC00EDD00128238B4DD16769218B002F15DAA1
:10080C00256821F00701C4E9008841F0010121832A
:10081C000026218B01F007024A4502D0A368002B69
:10082C0059D10DB9002E71D0002355E001F007030A
:10083C005A1F012A1FD821F00701062B256889B2FF
:10084C00C4E900880CD1002D2B4638BF00232BB1F6
:10085C00628B1B6801326283002BF8D141F00201DC
:10086C002046218304F0C5FA0028D1D0238B43F015
:10087C0020032383CCE7042B0AD121F0070189B292
:10088C002046218304F0B5FA10B141F020012183F8
:10089C000025BDE7032809D1226923F00703166858
:1008AC0043F00603002523832F46B2E7042806D124
:1008BC00226923F00703566843F00403F2E7052886
:1008CC0006D1226923F00703966843F00503E9E794
:1008DC0000252E46E8E7012341F0080121838BF324
:1008EC001188BFF36F8F03BB002D34D116B1514665
:1008FC002046B0474FF02003EFF3118B83F31188A0
:10090C00BFF36F8F238B23F008032383238BDA062B
:10091C002AD5012123F010032383B4F8189009F091
:10092C00070900297FF45EAF51E7A1680029DBD0ED
:10093C000B68002B38BF0023994620463B46D1F864
:10094C0004B00192D847019AB9F1000FCCD04946B6
:10095C00D9F80030EDE729463B46204601922D6838
:10096C0004F063FA019ABFE713F020011EBF23F0D5
:10097C00200302212383D0E7634E01000022F0B54F
:10098C00C0E9002282604A780346252A33D001311F
:10099C00084611F8012B2B2A3DD02FD8202A3ED007
:1009AC00232A40D01A7802F04401442902D16FF373
:1009BC0086121A7002782A2A4CD11988421C41F4EA
:1009CC00C071198011782E294FD151782A2945D020
:1009DC000132154600210A27104610F8014BA4F1EC
:1009EC003006092E53D9AA421FBF5878996040F09F
:1009FC000200587039E0881CDA70F0BD2D2A05D041
:100A0C00302ACFD11A7842F0400202E01A7842F034
:100A1C0004021A70BCE71A7842F00802F9E71A7857
:100A2C0042F01002F5E71A7842F02002F1E7224674
:100A3C0007FB01513039144614F8015BA5F130065F
:100A4C00092EF4D990421FBF1878596040F08000ED
:100A5C001870B7E7024600210A27ECE759780232F2
:100A6C0021F0060141F006015970114611F8010BF5
:100A7C006C2854D010D8682816D06A2858D04C2826
:100A8C005CD059786FF3C6015970114615E007FB1D
:100A9C000141024630399FE774285C784BD07A28A4
:100AAC00EFD12246062036E050785C78682830D1A9
:100ABC00012161F3C6045C70911C084610F8014BCF
:100ACC00782CDC7000F2B180572C42D8412C04D029
:100ADC00A4F14502022A00F2A88004219A7804F0BD
:100AEC00DF04A4F1410561F302026C4259786C41B8
:100AFC0064F3C7110E069A705970CAB200F1B38034
:100B0C0002F07801182940F08D806FF3C6025A70FC
:100B1C0078E02246022060F3C6025A70CDE7507886
:100B2C005C786C2801D10421C3E722460320F2E74C
:100B3C0005205A78EFE722460720ECE71A8822F4C2
:100B4C00F04222F0020242F4804242F002021A8089
:100B5C00B3E7A4F15802202A67D801A151F822F07A
:100B6C00150C0100370C0100370C0100370C01008B
:100B7C00370C0100370C0100370C0100370C010059
:100B8C00370C0100E70A0100370C0100150C0100BD
:100B9C00F10B0100E70A0100E70A0100E70A010076
:100BAC00370C0100F10B0100370C0100370C010070
:100BBC00370C0100370C0100410C0100150C010031
:100BCC005B0C0100370C0100370C01005B0C0100C1
:100BDC00370C0100150C0100370C0100370C01001B
:100BEC00150C010001219A7861F302029A705A786F
:100BFC0002F07802402A02BF197841F00101197005
:100C0C00632C04D0002205E002219A78ECE7003A2C
:100C1C0018BF01221978C1F34004224362F3410149
:100C2C001970EAE612F0380FECD01A7842F0010293
:100C3C001A70E7E703219A7861F302029A705A78E6
:100C4C0002F07802A2F140014A424A41E2E7032154
:100C5C009A7861F302029A705A7812F0780F14BFE6
:100C6C0001220022D6E70122D4E700BF2DE9F04F84
:100C7C008A4614469B464FF00009A1B00390207899
:100C8C0008B9484689E125280AD05146039B984764
:100C9C000028C0F28281631C0B9309F1010967E003
:100CAC00214616A8FFF76AFE9DF859300B90D8071D
:100CBC001CD55BF8042B002A0A9208DA9DF8582000
:100CCC0042F004028DF858200A9A52420A925907AF
:100CDC0014D55BF8045B002D13DA9DF859306FF3D3
:100CEC0041038DF859304FF0FF350AE09DF958203B
:100CFC00002AACBF4FF0FF32179AE7E79A07F2D5FC
:100D0C00189D0023CDE917339DF85A309DF85920D2
:100D1C0003F00703042B07D1930705D49DF9593031
:100D2C00002BB4BF0D2506259DF85A30002003F08A
:100D3C000703012B4FF00001C2F3C30226D1D31ECF
:100D4C00042B17D8DFE803F00332321616005BF8D9
:100D5C00040BC1179DF85860B70747D0224651467F
:100D6C000B9B039804F06BFA0028C0F216818144A7
:100D7C000B9C84E75BF8040B012A4FEAE07101D16C
:100D8C00C6B20FE0022AE5D100B2E2E7022B1FD176
:100D9C00D31E042B11D8DFE803F00309091010004F
:100DAC005BF8046B002330461946D3E70BF1070BB5
:100DBC002BF0070BFBE80201CCE700235BF8046B7C
:100DCC00012A30461946DBD0022AC3D1B6B2E9E774
:100DDC00042B06D10BF1070B2BF0070BFBE80201E0
:100DEC00B8E7032B08BF5BF8040BB3E79DF85B7007
:100DFC00782FBDD8572F7FD8252F00F0C780242FF0
:100E0C00B6D9412F03D0A7F14503022BB0D8002847
:100E1C0071F10003C0F25C81320700F15B8116F0C6
:100E2C00100618BF2026C1F3130306900793C1F3D5
:100E3C000A54DDE90623CDE91223002C40F04C8145
:100E4C000346079A134314BF4FF0010C4FF0000CEC
:100E5C000799462F4FEAC123069908BF6627CA0295
:100E6C0043EA515344EA02010C91E11719430D91E5
:100E7C00DDE90C010143CDE9122300F0CF81BCF177
:100E8C00000F40F05D81A4F2FE380024139B43F068
:100E9C000043139318F1020FC0F25E81B8F1000FFA
:100EAC0000F3968112A808F1010804F034F9B8F1A6
:100EBC00040FF7D107F0DF03472B40F0B581E31C9B
:100ECC0002DBA54280F2AD81023F002DFFB200DDB6
:100EDC00013D9DF85830980600F1A681002DD4BF35
:100EEC0000230123662F049340F0A081631940F185
:100EFC009E814FF000089EE1A7F15803202B3FF68E
:100F0C0037AF01A454F823F07B1001007D0D0100D4
:100F1C007D0D01007D0D01007D0D01007D0D010099
:100F2C007D0D01007D0D01007D0D01001B0E0100EA
:100F3C007D0D0100C70F0100291001001B0E0100DF
:100F4C001B0E01001B0E01007D0D0100291001007C
:100F5C007D0D01007D0D01007D0D01007D0D010059
:100F6C00AF1001007B1001007F1001007D0D01000E
:100F7C007D0D0100AD0F01007D0D01007B10010006
:100F8C007D0D01007D0D01007B100100514638469E
:100F9C00039B98470028BFF680AE21B0BDE8F08FC8
:100FAC00044604F0B4FA002D02DBA84228BF284600
:100FBC00002604EB000834B9DAE600268DF864004C
:100FCC000DF1650819ACA8EB040706B101379DF8C3
:100FDC005A10CB0640F106820237179A480617447E
:100FEC000A9B44BF189ABF18002B40F30E829DF841
:100FFC005820DF1B5107C2F3800500F145825306D0
:10100C0040F13E8246B151463046039B984700283A
:10101C00C3DB2E4609F10109302532E2340724D412
:10102C0016F0100618BF2026002871F1000303DA11
:10103C002D26404261EB41010DF17D03009316AA70
:10104C0019AB04F0B1F80446002D0DF17D030ADB59
:10105C009DF858101A1B6FF3861195428DF8581095
:10106C0001D9AD1A17959846A5E72B26DCE7002683
:10107C00E2E7002800F0B0810DF17D030093002120
:10108C0019AB16AA04F090F8BDF85A30044603F0D8
:10109C00EF0343F4F04343F010030026ADF85A304D
:1010AC00D2E7072A3FF664AEDFE802F00F04070F21
:1010BC000A0A0F0F80F800905AE6A0F8009057E645
:1010CC004A46D317C0E9002352E6C0F800904FE619
:1010DC002D26A8E62B26A6E640F2FF739C422BD1C8
:1010EC00DDE906342343A7F1410717D1192F95BF2A
:1010FC0044F6496346F66963ADF86430ADF8643084
:10110C0094BF462366238DF866309DF858300DF158
:10111C0067086FF386138DF8583053E7192F95BF76
:10112C0044F24E1346F26E13ADF86430ADF86430F1
:10113C0094BF4E236E23E6E74FF0000C88E6013C8B
:10114C0092185B41002A73F10001F8DACDE9122301
:10115C0099E612A803F0DFFFDDE9122C0023CDF88D
:10116C0020C00993DDE90801002908BFB0F1333F25
:10117C0008F10108EDD20520A2FB0023CDE90423E0
:10118C00059B013C00FB0C334FF0000C0593DDE993
:10119C000423CDE91223002100236FF000420598AF
:1011AC008B4208BF824208D2BCF1000F3FF472AEF2
:1011BC00DDE90423CDE912236CE6049B4FF0010C0E
:1011CC00DB180493059B08F1FF385B410593E2E7BC
:1011DC0012A803F0B1FF4FF0000C129BDDF84CE0AD
:1011EC0008F1FF3801340493002300216FF0004014
:1011FC00994208BF704507D2BCF1000F3FF44EAEC8
:10120C00049BCDE9123E49E6049B4FF0010CDB1820
:10121C0004934EEB0E0E08F1FF38E5E70024A046D0
:10122C0040E666272D1B54E600235BE66B1C102B57
:10123C00A8BF1023984610224FF000631192002291
:10124C00CDE91423B8F1010822D2129B149A1599F6
:10125C009B18139A41EB0202CDE9123202F0704353
:10126C000E9300230F93DDE90E23134306D012A82F
:10127C0003F062FF12A803F04EFF0134662F7DD1FC
:10128C00002C0CDC30230DF165088DF8643015E072
:10129C0014A803F051FF14A803F03DFFD2E70DF1A1
:1012AC006408119A002A07DD11A912A803F065FF42
:1012BC00013C08F8010BF4D1179400249DF8582038
:1012CC00910601D4002D1BDD2E2208F8012B94B1C0
:1012DC00002D15DD6242AA42A8BF2A46002A1792A9
:1012EC00A5EB0205D4BF002201229DF85A1062F32F
:1012FC0045118DF85A10002D02DD119A002A53DC8D
:10130C00049B002B5BD1189507F0DF02452A23D1F3
:10131C00002CB4BF2D222B224146B8BF6442632C53
:10132C0001F8027B88F801200ADD642094FBF0F2BE
:10133C0000FB124402F1300508F1030188F8025059
:10134C000A2094FBF0F2884600FB124402F13005AF
:10135C00303408F8025B4C70179A002A3ADC189A61
:10136C00002AD4BF002201229DF85A1062F3861184
:10137C0000228DF85A1088F8002023E611A912A833
:10138C0003F0FBFE9DF85830302818BF04F1FF34F1
:10139C009A068DF8640001D4002D0DDD2E230DF17D
:1013AC0066088DF86530A6E711A912A803F0E5FED2
:1013BC00013D08F8010B9EE70DF16508A0E700223E
:1013CC001892414618F8012D302AFAD02E2A18BF4F
:1013DC00884699E70122C7E7DFF8D8810646A8F1CD
:1013EC000504F0E50D0748BF0137F6E551462846E0
:1013FC00039B98470028FFF6D0AD0A9BA7EB030987
:10140C00002B03F1FF330A93F0DC46B15146304612
:10141C00039B98470028FFF6C0AD09F101099DF820
:10142C005A20550640F181809DF95920002A2DDB68
:10143C00A9EB040920782546A0F13002092A09EB12
:10144C00040604F1010445D99DF85A20179C900616
:10145C0006D4A719002CA7EB040604F1FF343FDCDB
:10146C0028782E280AD15146039B98470028FFF66E
:10147C0094AD002C06F1010639DC0135761B42E0F7
:10148C0020250A974F44B8E70A97BEE72546A9EBF3
:10149C0004092F4609EB050415F8010B702813D12C
:1014AC00189D25442A1B002A36DC43463A465146F1
:1014BC00039803F0C4FE0028FFF66FAD20440A9B8E
:1014CC00814603441D466FE05146039B9847002814
:1014DC00DFDA62E55146039B98470028AADA5CE5FF
:1014EC0051463020039B98470028B3DA55E5514606
:1014FC003020039B9847013CB8E75146039B984723
:10150C000028FFF64AAD2F46741915F8010BA0F10F
:10151C003002092AF1D9C3E751463020039B984782
:10152C000028FFF63AAD0134BCE7D10601D412070E
:10153C0008D551463020039B98470028FFF62DAD67
:10154C0009F101099DF85A20D30609D551469DF899
:10155C005B00039B98470028FFF61FAD09F10109BA
:10156C00179D4D44A5EB0902002A0ADC434622468E
:10157C005146039803F063FE0028FFF60EAD484475
:10158C009DE751463020039B98470028FFF605AD98
:10159C0009F10109E6E751462020039B98470028F2
:1015AC00FFF6FBAC09F10109A5EB0903002BF2DCFA
:1015BC00FFF7DEBB025E01004FF02002EFF3118358
:1015CC0082F31188BFF36F8F0121044AC2F84015D2
:1015DC0083F31188BFF36F8F002070470090035086
:1015EC0020B1034B800143F001031847704700BF43
:1015FC00805B010007B501904FF02002EFF31183DF
:10160C0082F31188BFF36F8F03F0CCFE019800F0CA
:10161C00D1FF034803F0E0FB00F014FEFCE700BF31
:10162C00035E01000E4A70B5841A05460C200E4666
:10163C004021A3100B4C5C43E4B200FB0420084493
:10164C0003F022FE011E05DB074B03EBC4046368A9
:10165C009847002128463346BDE87040184700BF24
:10166C0030020020B76DDBB69C5B01002DE9F04128
:10167C000C25104E8046841BA3100F4C0F465C4368
:10168C00E4B2654305F140004021304403F015FEFF
:10169C00011E09DB094A7319C3E90E27084B53F8DD
:1016AC003430BDE8F041184740463B46BDE8F041B8
:1016BC00184700BF30020020B76DDBB6295301007C
:1016CC009C5B010070B5002201210446052000F04E
:1016DC0067FD052000F046FD0F4801F0FFFA0F4BA7
:1016EC00984215D103F0ABFFE6680D49304603F084
:1016FC00D0FB00280BDB01253564E468084904F1B4
:10170C001C0003F0C6FB002801DB0020E56470BD63
:10171C006FF00400FBE700BF6D1701000000AD0B7C
:10172C00AC5B010073B50C23014600264B430A4801
:10173C00C4184033D4E90E521844A663019203F046
:10174C00DAFD35B12B46019A044802B0BDE8704071
:10175C00184702B070BD00BF30020020900000207E
:10176C0010B1012804D07047034B1B6C5B0701D1EF
:10177C00FFF7D8BF704700BF3002002008B54FF00C
:10178C002003EFF3118183F31188BFF36F8F124A9B
:10179C00136843F0020013F0010310600CD04FF0FB
:1017AC005022D2F80C34D2F80C2413F0010303D0DD
:1017BC000A4803F0A0FD012381F31188BFF36F8F5A
:1017CC0023B1BDE808400020FFF7ACBF0120BDE805
:1017DC00084001F093BA00BF800200207002002084
:1017EC00074BD3E8EF2F22F00201C3E8E01F0028DB
:1017FC00F7D1D30702D4012001F0B2BA704700BF71
:10180C00800200201FB500220123CDE902236B4684
:10181C00084ACDF800D0CDF804D003F0A6FD00287E
:10182C0005DB4FF480420023684602F05DF905B0F9
:10183C005DF804FB3D5301002DE9F84301220646F7
:10184C003949D1E8EF3FC1E8E02F0028F9D133B98D
:10185C00364937484B60CB608A6003F02DFB731E12
:10186C00012B32D8012E07D14FF05023D3F81C3462
:10187C0003F00303022B28D003F0D8FF044618B959
:10188C002C4B1B78002B47D14FF02003EFF3118525
:10189C0083F31188BFF36F8F0124274FDFF89C80EF
:1018AC00DFF89C904FF05022D2F81834D2F818245C
:1018BC00D2030CD503F00303022B01D0012E06D169
:1018CC0024B385F31188BFF36F8FBDE8F883C4B1DF
:1018DC00284600F0C5FC4FF05022D2F81835DBB288
:1018EC00012BDFD139680029DCD00021396039683F
:1018FC000221C2F818152022C8F88021C9F800303E
:10190C00D0E70021212002F0A9F8E4E74FF05023A2
:10191C000222C3F80423D8E74FF0502302220546D5
:10192C00C3F80823B9E700BF84020020200200207E
:10193C004C020020250800200451005000E100E07A
:10194C0008500050821C084B22F07F42C3F84025FF
:10195C00D3F80425904200D17047D3F80405821CBB
:10196C0022F07F42F2E700BF005001500022074BEB
:10197C001A601B68064A074BD3F840051368C01A57
:10198C0020F07F400344136002F052BA40510150E2
:10199C00880200200050015038B500244FF400128A
:1019AC000E4D0F4BC5F808451C601B680D4B0121F3
:1019BC00C3F880214FF480332246C5F80433152038
:1019CC0000F0EEFB152000F0CDFB0123064A0220AF
:1019DC0013602B60FFF730FF204638BD00500150DC
:1019EC004051015000E100E008500150F8B52E4B79
:1019FC00B0F1FF3F08BF18460138002841DD98427E
:101A0C00A8BF1846294B2A49D3F804250968002693
:101A1C00521A12F4000F18BF002022F07F44013438
:101A2C002044214C234DA04294BF0C180C194FF4A8
:101A3C008030C3F80803D3F80415D3F840252E6082
:101A4C002F6821F07F47C3F84075C3F84403531A3D
:101A5C0023F07F43012B04D10F2003F0EDFE2E6009
:101A6C002B684FF40012144BC3F880210F4BD3F8A2
:101A7C000405221A22F07F42012A04D1FFF762FFEB
:101A8C000BE00020BEE724F07F42C3F84025D3F8DA
:101A9C000405241A023C2302F0D44FF48032034B89
:101AAC00C3F80423F8BD00BFFFFF7F0000500150B6
:101ABC00880200204051015000E100E04FF020026C
:101ACC00EFF3118382F31188BFF36F8F064AD2F8BC
:101ADC000405064A1268801A20F07F4083F31188AF
:101AEC00BFF36F8F704700BF005001508802002079
:101AFC00F7B500281C460D4614BF4FF400534FF4A5
:101B0C000043204E954232D302FB03F0013A4B4383
:101B1C0000901D4803F060F91C4B14F0100F1C4989
:101B2C001C4808BF194603F057F914F0040F14BFF2
:101B3C0072212D21184803F04FF914F0020F14BF35
:101B4C0077212D21144803F047F914F0010F0CBF35
:101B5C002D217821104803F03FF96C210E4803F039
:101B6C003BF90E4803B0BDE8F04003F035B928B19D
:101B7C0005F5E07746F827400135C3E705F5C07752
:101B8C00F8E700BF003000504B5E01003F5E0100E3
:101B9C00365E0100CA5F0100655E0100A0610100B4
:101BAC0008B543B2002B0CDB012200F01F018A4068
:101BBC005B091049203341F82320BFF34F8FBFF34B
:101BCC006F8F830003F1A04303F540533128D3F802
:101BDC00002806D0002A07DA02F00302023A012A92
:101BEC0002D8054AC3F80028012103F02EFC00207E
:101BFC0008BD00BF00E100E00001008030B54FF4EB
:101C0C00E13485B02E4D4FF4E1312E4803F0E4F869
:101C1C0021682D4803F0E0F829682C4803F0DCF823
:101C2C0010220021684603F0D7FC23686846009315
:101C3C00029400F0ADFE012000F0DAFE002000F06E
:101C4C00C3FE002000F0E8FE0121002000F002FF9E
:101C5C0000F0F6FE2C681E4803F0BEF80820FFF7D3
:101C6C009FFF24F00104BFF34F8FBFF36F8F640805
:101C7C0064002046214622462346B7EE000AF7EEC2
:101C8C00000AB7EE001AF7EE001AB7EE002AF7EECC
:101C9C00002AB7EE003AF7EE003AB7EE004AF7EE3C
:101CAC00004AB7EE005AF7EE005AB7EE006AF7EEAC
:101CBC00006AB7EE007AF7EE007AFEF733FD00BF4C
:101CCC0004C20100685E01007F5E0100945E0100A9
:101CDC00B25E01002DE9F8433B4803F07DF800218A
:101CEC0040F2171308460322FFF702FF40F20713D6
:101CFC00202203210020FFF7FBFE344803F06CF890
:101D0C00334B344AC3F3C431C3F30E03C3F500435E
:101D1C00C3F34313C2F80015C2F80435D2F800150A
:101D2C00D2F804252C48520103F056F8274803F04A
:101D3C0053F803F038FB014610B1284803F04CF877
:101D4C000024274803F048F840F21713082200211A
:101D5C000120FFF7CDFE1F4D40F207132022082172
:101D6C000120FFF7C5FE194803F036F8C5F880448A
:101D7C001C4803F031F81C4FC5F8C044DFF87C80D8
:101D8C001A4DDFF87C906E792146002E14BF3B462D
:101D9C00434648462A6803F01FF866B914480134D4
:101DAC0003F01AF81A2C05F10805ECD10748BDE828
:101DBC00F84303F011B82879FFF7F2FE08B10D488B
:101DCC00EDE70D48EBE700BFE85E0100A061010004
:101DDC00E07F0100003000500C5F0100525F0100F9
:101DEC00825F0100A45F0100DD5E0100B85B0100B1
:101DFC00CD5F0100D45F0100DC5F0100435E010098
:101E0C00C05F010010B5002850D0002A4ED0B1F5AB
:101E1C00803F48D35318B3F5813F06D9254CA142D6
:101E2C003BD904F61D24A3423AD803F0AAFB0020A8
:101E3C00BDE81040714672467346B7EE000AF7EEE5
:101E4C00000AB7EE001AF7EE001AB7EE002AF7EE0A
:101E5C00002AB7EE003AF7EE003AB7EE004AF7EE7A
:101E6C00004AB7EE005AF7EE005AB7EE006AF7EEEA
:101E7C00006AB7EE007AF7EE007A8EF3008C10B49D
:101E8C00F1EE10CA4FF66074C0F6FF740CEA040C45
:101E9C00E1EE10CA10BCF4467447074CA14202D9BB
:101EAC00064CA342C1D94FF0FF30C1E76FF01500CB
:101EBC00BEE700BF0302FF002F01FF003801FF0047
:101ECC002DE9F04F81460E4685B0002954D04FF0D5
:101EDC000008DFF8B8B0DFF8B8A001AF5BF8045B1E
:101EEC009AE807004D4487E807000C22394628463B
:101EFC0003F020FB044608B9002D40D108F101087D
:101F0C00B8F1050FEAD16FF00D04204605B0B7EE1D
:101F1C00000AF7EE000AB7EE001AF7EE001AB7EE59
:101F2C00002AF7EE002AB7EE003AF7EE003AB7EEC9
:101F3C00004AF7EE004AB7EE005AF7EE005AB7EE39
:101F4C00006AF7EE006AB7EE007ABDE8F04F714612
:101F5C0072467346F7EE007A8EF3008C10B4F1EEF5
:101F6C0010CA4FF66074C0F6FF740CEA040CE1EE74
:101F7C0010CA10BCF44674476FF01504C5E73C2238
:101F8C002946304603F0FDFABFE700BF885C01002C
:101F9C00505B0100014802F0E5B900BF9C5C0100F8
:101FAC0008B530B143683BB1006801F0A7F90020D7
:101FBC0008BD6FF4E040FBE70048F9E7EA8FFFFF4C
:101FCC0010B5044618B90B4B0B485B689847616811
:101FDC0059B111F00201206808D00146074801F000
:101FEC00EBF8002323600023636010BD142203F080
:101FFC00F3FAF8E744000020DD6001008C020020B9
:10200C0010B5044618B9144B14485B6898476368BC
:10201C00CBB92368BBB94FF0FF324FF0FF332146E9
:10202C000F4801F097F808B923681BB90A4B0D4803
:10203C005B68984714220021206803F0CDFA63688E
:10204C0043F002036360206803F03DFB636843F0D8
:10205C000103636010BD00BF44000020DD6001007F
:10206C008C0200200361010008B568B1436873B1AC
:10207C0000684FF0FF334FF0FF3201F0C7F8054B0B
:10208C00002818BF184608BD6FF4E040FBE7024873
:10209C00F9E700BFE98FFFFFEA8FFFFF08B506499C
:1020AC0040231422054803F0F3FABDE80840044924
:1020BC00044802F0A9B900BFA80200208C0200203D
:1020CC00B45C0100A45C0100094A0A4993680968E0
:1020DC009867D96708494B6843F080534B600023DD
:1020EC0083F31188BFF36F8F9368D86F704700BF6D
:1020FC00C4070020045D010000ED00E00F498A6870
:10210C004FF038001044EFF3098C80E8F01F2020CA
:10211C0080F31188BFF36F8F094F4FF000668A6A06
:10212C008A603E60906F0023936780F3118802F100
:10213C00380090E8F01F8CF309887047C407002022
:10214C0004ED00E01EF0040F0CBFEFF30880EFF37A
:10215C000980816911F8021C0229FFD001B503F036
:10216C00A4F901BD43B2002B08DB012200F01F00D3
:10217C0002FA00F0024A5B0942F82300704700BFE4
:10218C0000E100E0054B420953F82220012300F046
:10219C001F0003FA00F01040704700BF00E100E0A0
:1021AC0043B2002B01F10101ACBF03F16043064BBC
:1021BC004FEA4111C9B2ABBF03F5614300F00F0008
:1021CC0083F800131954704714ED00E042F8203CDA
:1021DC00009B0B4942F81C3C019B21F0010142F889
:1021EC00183C029B42F8081C42F8143C4FF08073D8
:1021FC0042F8043C0023203A82658367704700BF95
:10220C00574F010008B506460D4614460023E1EE73
:10221C00103A00F045FA074B9E60204685F309887A
:10222C00002163B681F31188BFF36F8F0022002366
:10223C0002F08BFEC4070020014910220A6070478F
:10224C0010ED00E072B6404080F31188BFF36F8F41
:10225C00BFF34F8F30BF62B6BFF36F8F704700BFB5
:10226C0072B6494081F3118820BF80F3118862B6A1
:10227C00704700BF30BFFFF7FDBF00BF174A08B55E
:10228C00174B22F07F029A60BFF34F8FBFF36F8F13
:10229C00D3F8882022F47002C3F88820D3F8882061
:1022AC0042F4A002C3F888200E4A536823F040433E
:1022BC005360BFF34F8FBFF36F8F0023E1EE103AE3
:1022CC00EFF3148323F0040383F3148800F060FE0F
:1022DC0000F068FE00F0B6F900F096FE0002010076
:1022EC0000ED00E030EF00E001B572B60B4A506A29
:1022FC0000281EBF0021516203F0C8F962B6EFF34B
:10230C000580A0F110004FEAC0000549014409C93D
:10231C009847BDE80140034908470000C407002066
:10232C003C590100A5250100002080F31488BFF35F
:10233C006F8F002080F30A8880F30B8802F099FFDE
:10234C0000200E490860BFF34F8F0D4880F30888BA
:10235C0000F052F9202080F311880A484FF40061F4
:10236C00401880F30988EFF314800221084380F3AE
:10237C001488BFF36F8FFFF781FF000094ED00E02E
:10238C002818002068190020EFF30880EFF309816A
:10239C0001B5724600F06CF801BD00BF0C4B9A6A97
:1023AC009A6A9A6A920708D55A6B9A6A120604D5E9
:1023BC0018B19A6A22F080029A620020044B9A6A41
:1023CC009A6A9A6A9A6A42F0FF029A620870704797
:1023DC0000ED00E00D4B9A6A9A6A9A6A920508D54C
:1023EC009A6B9A6A120404D518B19A6A22F40042C4
:1023FC009A620020054B9A6A9A6AD20558BF9A6A6B
:10240C009A6A42F47F429A620870704700ED00E0CD
:10241C00074B00209A6A9A6A9A6A9A6A9A6A9A6A26
:10242C009A6A9A6A6FEA02426FEA12429A6270479B
:10243C0000ED00E00D4B9A695A695A69D0070FD428
:10244C005A6991070CD45A69520709D45A69100772
:10245C0006D45A69D10603D45A69920658BF5A69F0
:10246C005A6942F0FF025A61704700BFD0ED00E09C
:10247C00F0B5414B00255B688BB0C3F3080385F3C3
:10248C001188BFF36F8F02F07F44B4F17F4F1ED1E0
:10249C0012F001041AD0560602F0080467D482F038
:1024AC000402C2F3800564B1EFF389860022033B7A
:1024BC008DF80720042B4BD8DFE803F00B4C504170
:1024CC004800EFF38886F1E70E46EFE725462E46E7
:1024DC00ECE7294BDA6A92073AD4DC6A14F08044B0
:1024EC0008D028331B78EBB101200DF10701FFF761
:1024FC0055FF04469DF8073093B92022314602A8B7
:10250C0003F03FF8099B6DB3C3F3080222B96FEADD
:10251C0053236FEA43230993204602A902F0C3FF19
:10252C000BB0F0BD154B1B782BB101200DF1070141
:10253C00FFF750FFDDE7124B1F88BFB217B1FFF753
:10254C0067FFD6E70F4B5C69002CD3D0FFF772FF07
:10255C000024CFE700200DF10701C8E700200DF1A2
:10256C000701E5E723F4FF7323F00103D3E7002C05
:10257C00AAD10646012599E700ED00E029ED00E01F
:10258C002AED00E0D0ED00E0024A536943F010035D
:10259C005361704700ED00E0044B9968986A8842DB
:1025AC0003D003494FF080520A607047C4070020E3
:1025BC0004ED00E0BFF34F8F0549064BCA6802F4E7
:1025CC00E0621343CB60BFF34F8F00BFFDE700BF4A
:1025DC0000ED00E00400FA0500231846054A1168D6
:1025EC00C1F307218B4200D1704793601061013316
:1025FC00F8E700BF90ED00E010B572B6002484F34C
:10260C001388FFF7E9FF0E4A234611464FF0FF34BB
:10261C0003F120000133102B42F82040F8D10023A5
:10262C004FF0FF3003F160020133102B41F8220010
:10263C00F8D162B6BFF34F8FBFF36F8F10BD00BFE1
:10264C0000E100E0002320210348C2180133412B94
:10265C0082F80013F9D1704700E100E008B50E4B89
:10266C009B68834207D1EFF3058393B10B4A536800
:10267C0043F08053536001F04FF84FF02003EFF319
:10268C00118083F31188BFF36F8FBDE8084003F00E
:10269C0021B801F0E1FA00BFC407002000ED00E012
:1026AC0010B50E4B88B002930D4B0E4C03930E4B92
:1026BC000E4A049302AB019301A82346012100F0BA
:1026CC0007F9002307930A4B0121E41A05A8059387
:1026DC00069400F007F908B010BD00BF0000002000
:1026EC000000000000000120060001000000002096
:1026FC001801002010B50B680C7A23F01F0204F0AF
:10270C001F031A43CB68640923F01F03044943EAEF
:10271C00440343F001038860CA600B6110BD00BF25
:10272C0090ED00E02DE9F04F074688461446002650
:10273C004A4D85B046450BDA57F82630D3F804904D
:10274C00B9F1000F3AD0B9F11F0F05D86FF015048D
:10275C00204605B0BDE8F08F19F01F0FF6D1D3F865
:10276C0000A01AF01F0FF1D1504602F0C6FE8346AE
:10277C0009EB0A00013802F0C0FE8345E6D11BF1DB
:10278C00160FE3D0631E5B45E0DBC5F808B0E868C4
:10279C00C5F808B02B6957F8261020F01F0043F03D
:1027AC001F0AD1E900321A44984202F1FF3918D1BC
:1027BC00CA4505D15FFA8BF002F082FE0136B9E70B
:1027CC00C5F808B0EB6822F01F0203F01F031A4390
:1027DC00EA60E0B202F074FE10F1160FB6D0441CA1
:1027EC00ECE7C5F808B02A69013B23F01F0302F09F
:1027FC001F021343CA45E0B22B61EBD002F060FE1E
:10280C0010F1160FA2D0C5F808B0EA689DF8083090
:10281C000AF1FF3A62F304038DF808302B699DF836
:10282C0008205B0863F3471257F826308DF8082010
:10283C00D3E900130B44009323F01F0301305344DE
:10284C00A3EB0903C0B223F01F030F2803933FF639
:10285C007DAF6946FFF74EFFC1E700BF90ED00E08A
:10286C000522034B5A60BFF34F8FBFF36F8F704736
:10287C0090ED00E0BFF35F8F0022014B5A60704770
:10288C0090ED00E038B50E4C2568102D14D8FFF7EC
:10289C00F1FF00200B4B0C4A1A63854205D10B4B00
:1028AC001D70FFF7DDFF002038BD616801EB0011E2
:1028BC00FFF720FF0130F0E74FF0FF30F4E700BFE7
:1028CC00C85C010090ED00E0AAFF44002408002041
:1028DC0010B5034C2278FFF725FF207010BD00BF08
:1028EC00240800202DE9F74F264D8A4606464FF066
:1028FC000008AB46244FD0451BDAD6F80490B9F14A
:10290C00000F39D031680846019102F0F6FD0199AB
:10291C00044609EB0100013802F0EFFD84424FF050
:10292C0014021A4B08D06FF0150302FB08F84BF891
:10293C00083003B0BDE8F08F14F1160F2C60F8D0FE
:10294C001978A142F5DD02FB08B0BC60BC60FC68E4
:10295C0000F10801007B64F30400087138690C79FC
:10296C00400860F347140C71F96821F01F0169608D
:10297C00396921F01F01296108F1010814350C3661
:10298C00B9E700BFA807002090ED00E02408002064
:10299C0082680C4B9A60036883F38888436883F3DE
:1029AC008988027B02F00101EFF3948323F0030387
:1029BC00920748BF43F0020309B143F0010383F3CC
:1029CC009488704700ED02E0084AD36848B123F4BC
:1029DC0000531B041B0C43F0BF6343F40033D36060
:1029EC0070479BB243F40053F5E700BF00ED00E0E5
:1029FC00084AD36840B19BB243F4804343F0BF63B1
:102A0C0043F40033D360704723F480431B041B0C46
:102A1C00F4E700BF00ED00E0084AD36840B19BB278
:102A2C0043F0080343F0BF6343F40033D3607047B3
:102A3C0023F008031B041B0CF4E700BF00ED00E0BF
:102A4C00034AD2F88C3043F44063C2F88C307047A0
:102A5C0000ED00E0084B1A6818B142F001021A6050
:102A6C00704722F001021A601A6811B142F002029A
:102A7C00F5E722F00202F2E7D0ED00E010B50B48CA
:102A8C0000F022FA60B1C46883684FF420621F2101
:102A9C001B68984738B9236823F00043236010BDA6
:102AAC006FF01200FBE70020F9E700BF3F61010067
:102ABC002DE9F0430025214C214E54F8048CDFF80D
:102ACC00889085B0A84503D8002005B0BDE8F083F8
:102ADC00636A96E807001F6801AB83E807000C22C5
:102AEC001946384602F026FD90B98FB1636A216908
:102AFC001B681A6991420BD19A69A169914207D856
:102B0C00E169914204D962695B6932EA03030AD034
:102B1C00276A67B10B4802F05FF9404080F31188D7
:102B2C004FF0040002DFE36801351C44CAE7484655
:102B3C0002F052F9636A1F60F5E700BF3C04010024
:102B4C005C5B0100466101006F610100054B186878
:102B5C00043B1B68092B03D1431E58425841704754
:102B6C00002070473401FF004F4A08B5136843F04A
:102B7C00020313604D4B1B68092B01BF4FF0502310
:102B8C000022C3F81421C3F81821FFF7DFFF30B17E
:102B9C000123474A1360A2F63822C2F87835434B1A
:102BAC001B68092B07D1434B1B68012B1EBF01224D
:102BBC00414BC3F87825FFF7C9FF10B10E223F4BEC
:102BCC001A603A4B1B68092B04D100223C4B1A604B
:102BDC0001225A600022D30003F57F03D3F80013BF
:102BEC00013108D0D3F800130132D3F80433B2F515
:102BFC00807F0B60EFD1334BDA69D1073BD5324B79
:102C0C001946D3F80024012AFBD1C3F80425D1F8C6
:102C1C000034012BFBD12B4BDA69D20708D5DA69CA
:102C2C00294922F00102DA61D1F80024012AFBD1F2
:102C3C001A6A01320AD11A6A22F0FF0242F020020B
:102C4C001A62214AD2F80034012BFBD100221E4B10
:102C5C00C3F80425D3F80024012AFBD1BFF34F8F0E
:102C6C001A491B4BCA6802F4E0621343CB60BFF3F2
:102C7C004F8F00BFFDE71B6A0133C0D0134BD3F855
:102C8C008C2042F44062C3F88C20D3F8882042F4A4
:102C9C007002C3F88820BFF34F8FBFF36F8F0D4BBB
:102CAC000D4A1A6008BD00BFD0ED00E03001FF00F6
:102CBC00384A00503401FF0000400050E4AE03508D
:102CCC000C4700500080FF000090035000ED00E026
:102CDC000400FA05240000200090D003044B1A795C
:102CEC0022B9012218601A710248704702487047D5
:102CFC00BC0700200000AD0B0C00AD0B10B101287F
:102D0C0020D070474FF05022D2F81834D2F8181453
:102D1C00C90311D503F00303022B0DD1C2F81835EA
:102D2C0000220D4B1A601B6802224FF05023C3F88F
:102D3C00042301229A6070474FF050230122C3F8FC
:102D4C001825EDE70022054B1A601B684FF0502345
:102D5C00C3F8040318607047045100500051005030
:102D6C0038B510B1012818D038BD4FF050230222CD
:102D7C00012142F210751C46C3F80823154A106055
:102D8C001268154A1160D4F81834DB03ECD5012015
:102D9C0002F053FC013DF6D1E6E74FF0502400223F
:102DAC0042F210750D4BC4F808031A601B680C4BEB
:102DBC001860D4F80C34D4F80C2403F00103D203BB
:102DCC00D2D5002BD0D0012002F037FC013DF0D140
:102DDC00CAE700BF045100500C5000500051005085
:102DEC0004500050164B10B51A6852B100201860F0
:102DFC001B6801224FF05023C3F80823114B1B68AA
:102E0C009847114B1A688AB100221A601B684FF060
:102E1C005023D3F81824D3F8181402F00302012A13
:102E2C004FF0020103D1C3F818159A6010BDC3F816
:102E3C000813044B0120BDE810401B68184700BF65
:102E4C0000510050BC07002004510050F8B5104B45
:102E5C00104F53F82050013053F82060AE4200D888
:102E6C00F8BDD5E900342046984770B16CB1012308
:102E7C00E41B094A2411610952F8210004F01F04D3
:102E8C0003FA04F4044342F821400835E6E700BF96
:102E9C00F05C010090000020C0000020084BC01A1C
:102EAC000011084B420953F82220012300F01F00A7
:102EBC0003FA00F010420CBF18460020704700BF08
:102ECC0090000020C0000020114970B505460E4648
:102EDC00104C8C4204D10F4CB4420AD1002414E0A3
:102EEC002046FFF7DBFF10B12368AB420DD0103446
:102EFC00EFE72046FFF7D2FF08B91034ECE728467D
:102F0C00216802F00BFB0028F7D1204670BD00BFF2
:102F1C00C000002090000020F8B5054600271B4E8D
:102F2C004FF02002EFF3118382F31188BFF36F8F00
:102F3C00286988B12F6183F31188BFF36F8F00F07C
:102F4C00EBFB4FF02003EFF3118083F31188BFF3F9
:102F5C006F8F02F0BFFBE3E783F31188BFF36F8F32
:102F6C004FF02002EFF3118382F31188BFF36F8FC0
:102F7C0002F07CFC012104460228D8BF084602F06E
:102F8C0085FC7462FFF75EF9CAE700BFC407002036
:102F9C000248034A0021121A02F01EBB180100203D
:102FAC002808002008B50648064A0749121A02F0FC
:102FBC00E8FABDE80840054A0549064802F0E1BABE
:102FCC000000002014010020B86101000000000086
:102FDC00B861010000000020012208B5084B022056
:102FEC001A70FFF733FF0320FFF730FF00F0D6FD18
:102FFC0001F0CCFE034A137B23F00103137308BDCD
:10300C0025080020980100202DE98048DFF8F89071
:10301C00A7B089F308880024E023334D4FF0010B4F
:10302C0085F82230EC772C766C76AC76EC766B6A85
:10303C002E4E43F4E0236B626B6ADFF8D0A043F4AE
:10304C0000236B62AC63FFF79FFAFFF7F5F84FF0C4
:10305C00FF33AB62EB6240F20113254DADF8243027
:10306C0006ABAB602046CDE92044FFF7EFFE012014
:10307C00FFF7ECFE00F098FC1E4BAE624FF4805252
:10308C001D49059330465346CDE9034BCDE9014428
:10309C00009400F053FD737B804623F0040330460C
:1030AC00737302F043FB0F23144F4FF4A072CDE95E
:1030BC0002431349134B3846CDE904B4CDE900540F
:1030CC0000F03CFD7B7B524623F004037B7305F13F
:1030DC001C0341463046C5E90733EF602C76C5F832
:1030EC000490FFF78FF800BF00ED00E0980100207E
:1030FC00C4070020AD610100280800201801002041
:10310C0028180020252F010068210020E52F010040
:10311C0070B50E4B0E4CA34201D3002070BDD3E909
:10312C00030141EA000212F003020BD19D685A61BF
:10313C00AA4201D11C33EEE75E6901320E6059617F
:10314C000144F5E76FF01500E8E700BFC40000206C
:10315C00C4000020D3B50C4616461F464FF0200382
:10316C00EFF3118183F31188BFF36F8F43695BB168
:10317C0023601B684361836901338361002081F301
:10318C001188BFF36F8F11E056EA070203D16FF07D
:10319C000B002360F3E70246CDE90067044800F01A
:1031AC007DFB18B9034B9B685B69236002B0D0BDF3
:1031BC0026080020C407002070B504460D464FF0C9
:1031CC002003EFF3118683F31188BFF36F8F02F0A6
:1031DC0008FB58B100212A68C167426102F0A6FAC7
:1031EC003146BDE87040084800F010B92B686269A0
:1031FC001A602B686361A369013BA36186F3118894
:10320C00BFF36F8F70BD00BF260800202DE9F3417E
:10321C00044616461F464FF02003EFF3118883F344
:10322C001188BFF36F8FC368324A6BB180689168A5
:10323C00884219D056EA070318D188F31188BFF3D6
:10324C006F8F6FF00F000CE0916891F90E10013345
:10325C00E36093682161A36088F31188BFF36F8FDB
:10326C00002002B0BDE8F0812169F0E790F90E3042
:10327C0091F90E109942A8BF194621EAE1719942C1
:10328C002CDA00F04DFB054622464146CDE900679D
:10329C00194800F003FB0028E3D04FF02003EFF3B4
:1032AC00118683F31188BFF36F8F23682169A342C2
:1032BC0007D033B193F90E309942A8BF194621EAD1
:1032CC00E171A06890F90E30994209D16DB1314687
:1032DC00094800F09BF86FF00A00C2E70025D3E71D
:1032EC0000F01EFB0028F2D1F0E786F31188BFF343
:1032FC006F8FF0E7C40700202608002038B58368DC
:10330C000446002B36D01E4A9268934235D1DA7BA4
:10331C00013ADA73C368012B05D0013BC36000F09E
:10332C00D9F8002038BD4FF02003EFF3118583F35B
:10333C001188BFF36F8F0169806890F90E30994244
:10334C0001D000F0EDFA204602F04BFAA06058B123
:10335C0090F90E2022610022C26702F0E7F929469B
:10336C00084800F053F8DAE7E06085F31188BFF302
:10337C006F8FD4E76FF01500D4E74FF0FF30D1E733
:10338C00C40700202608002010B5084C23685BB148
:10339C00FEF794FB2268064910444861BDE81040D2
:1033AC000021104602F072BA10BD00BF00080020C8
:1033BC00C4070020F8B50C464FF02003EFF311853D
:1033CC0083F31188BFF36F8F4FF4004140F2E7365F
:1033DC0000270022E1FB0067094B30465A61394651
:1033EC004FF47A720023FDF723F8064B1860064B56
:1033FC001C60FFF7C9FF85F31188BFF36F8FF8BD11
:10340C00C407002000080020FC07002049B9EFF396
:10341C00058030B9054B9A6A9B689A4201D0FEF739
:10342C0053BE81F31188BFF36F8F7047C407002020
:10343C004FF02003EFF3118183F31188BFF36F8FEB
:10344C00044B9A68D37B013BD37381F31188BFF390
:10345C006F8F7047C4070020094B03F12C02824286
:10346C0005D19B688B4202D14B7BDB0606D1D1E99F
:10347C00003213605A600023C1E90033704700BF6B
:10348C00C407002038B5124C01462369A2680BB161
:10349C00E5680CE004F12C0002F03EF90546537B84
:1034AC00980644BF43F008035373002DF0D049B97C
:1034BC00537BDB0606D1AB6923B9D3897F2B01D9AA
:1034CC00A26238BD954201D0FFF75EFFA562F8E716
:1034DC00C407002010B54FF02003EFF3118483F3E1
:1034EC001188BFF36F8F084B00209A68D37B013390
:1034FC00D373FFF7C7FF84F31188BFF36F8FBDE859
:10350C00104002F0F3B800BFC407002070B490F96B
:10351C000D20437B002A2CDBDB062AD1836943BBBD
:10352C00154A114651F82C4F8C4218BF2346002BDC
:10353C0038BF0023146BB3B190F90E6093F90E50A1
:10354C00AE4203DBA3420ED01B68F4E75A68C0E915
:10355C00003210605860437B63F07F03437370BC90
:10356C000020FFF78FBFC0E90014136B18601063C5
:10357C00F1E770BC704700BFC407002010B54FF0D6
:10358C002002EFF3118482F31188BFF36F8F427B1B
:10359C00510704D484F31188BFF36F8F10BD22F050
:1035AC0004024273FFF7B2FF2146BDE81040014808
:1035BC00FFF72CBF2608002070B590F90D3001469E
:1035CC00002B02DA1748FFF747FF174A104650F84E
:1035DC002C3F146B834208BF0023002B38BF002301
:1035EC00D3B191F90E6093F90E50AE4203DBA342B6
:1035FC0012D01B68F4E75868C1E9003001605960CB
:10360C004B7B906863F07F034B73431A58425841CD
:10361C00BDE87040FFF736BFC1E90004136B1960B9
:10362C001163EDE7F0070020C4070020014670B5D8
:10363C004FF02003EFF3118483F31188BFF36F8FE6
:10364C00164B174A98681568A8421D4606D1FFF715
:10365C009BFE84F31188BFF36F8F70BD002616603C
:10366C00104A1268BAB1C2897F2A14D8427BD2069A
:10367C0011D10D4A90F90E60126896420BDB0B4A81
:10368C00904208D05A698A4202DCFFF795FFDEE7C8
:10369C00521A5A61DDE700236B61DAE7C407002098
:1036AC00F807002000080020FC070020180100206B
:1036BC0070B50446183002F0C3F84FF02003EFF356
:1036CC00118683F31188BFF36F8F94F90D30002BA3
:1036DC0007DA21460E48FFF7BFFE637B03F07F033A
:1036EC0063730C4D637BA86843F010036373031B77
:1036FC0058425841FFF7C6FE86F31188BFF36F8F0F
:10370C00AB68A34203D1BDE8704001F0EFBF70BDC0
:10371C00F0070020C40700202DE9F04104464FF0CB
:10372C002003EFF3118283F31188BFF36F8F437B78
:10373C0013F0280F05D082F31188BFF36F8FBDE80B
:10374C00F08143F02003437382F31188BFF36F8F32
:10375C00183002F075F84FF02003EFF3118683F365
:10376C001188BFF36F8F637BD80616D1A269A2B9FB
:10377C00190607D521462648FFF76EFE637B03F03A
:10378C007F036373234B9868021B50425041FFF731
:10379C0079FE002704F130081DE09B07F9D521467E
:1037AC00A068FFF759FE637B23F0020363730023C9
:1037BC00A360EEE705F1180002F042F8A86829466C
:1037CC00FFF74AFE6B7B284623F002036B73AF6056
:1037DC00EF67FFF79BFE256B454501D0002DE9D126
:1037EC000C4B9A680C4B9A4202D10120FFF74AFE0F
:1037FC00637B43F008036373236E86F31188BFF376
:10380C006F8F002B9BD02046BDE8F041184700BFBE
:10381C00F0070020C40700201801002008B590F91B
:10382C000D300146002B06DA0748FFF715FE4B7BDF
:10383C0003F07F034B73054B9868431A5842584169
:10384C00BDE80840FFF71EBEF0070020C4070020AB
:10385C002DE9F041064614461D464FF02003EFF3C8
:10386C00118783F31188BFF36F8F01F08FFF87F3FC
:10387C001188BFF36F8F6B1C08BFB4F1FF3F08D0EA
:10388C0022462B4606F118000349BDE8F04100F032
:10389C0047BABDE8F08100BF5957010010B50C467E
:1038AC00064B11469868064B1860DDE90223FFF7BA
:1038BC00CFFF2046BDE81040FEF706BCC407002031
:1038CC00F8070020F8B5054601F0FBFF2C184FF067
:1038DC002003EFF3118783F31188BFF36F8F0D4E25
:1038EC000D4BB0681860FFF799FFB0680B492A467A
:1038FC00EB17183000F014FAB2683846537B43F0DB
:10390C0010035373FEF7E0FB01F0DBFF201A20EAF3
:10391C00E070F8BDC4070020F807002059570100DB
:10392C002DE9F04104464FF02003EFF3118883F3A7
:10393C001188BFF36F8F437B4EB2DB062ED18569A6
:10394C0065BB184F214607F12C00FFF785FDFB6A7C
:10395C003A6B834218BF1D46002D38BF0025A67355
:10396C00B5B195F90E10B14203DCAA4210D02D6806
:10397C00F6E76A68C4E9005214606C600120FFF736
:10398C0081FD012088F31188BFF36F8FBDE8F081B2
:10399C00C4E900023B6B1C603C63EFE70020A6739C
:1039AC00F0E700BFC40700200021044B084603F1D8
:1039BC002C02C3E90B22FFF7FDBC00BFC40700209B
:1039CC00F8B5244C244BA2689A4230D04FF0200317
:1039DC00EFF3118583F31188BFF36F8FA16804F1A6
:1039EC002C00FFF739FDE36AA268834208BF00236D
:1039FC00002B38BF0023216B2BB392F90E7093F977
:103A0C000E60B74203DB8B421DD01B68F4E759688C
:103A1C00C2E900310A605A60537B012063F07F03D6
:103A2C005373FFF72FFD85F31188BFF36F8F4FF0A2
:103A3C002003EFF3118083F31188BFF36F8FBDE880
:103A4C00F840FEF741BBC2E90001236B1A60226308
:103A5C00E2E700BFC4070020180100200B46013329
:103A6C0008BFB0F1FF3F10B506D10B4B9868FFF7BC
:103A7C001FFE4FF0FF3010BD044648B9FFF7A0FF02
:103A8C004FF47A7084FB0034D80B40EA4440F2E7E0
:103A9C00FFF718FF0446F3E7C4070020014B9868B2
:103AAC00704700BFC407002038B504464FF0200310
:103ABC00EFF3118583F31188BFF36F8F01F091FE43
:103ACC0048B10022C26701F031FE2946BDE83840FA
:103ADC000448FFF79BBCD4E902329A4218BF013369
:103AEC00A360F2E72608002037B514461D464FF0B8
:103AFC002003EFF3118183F31188BFF36F8F836879
:103B0C0043B1013B836081F31188BFF36F8F0020B9
:103B1C0003B030BD54EA050306D181F31188BFF31D
:103B2C006F8F6FF00F00F3E70246CDE900450248B6
:103B3C00FFF7B4FEECE700BF260800202DE9B041EA
:103B4C0000F1300585B0C0E90C550E9D0446057397
:103B5C00042545730D9D07328573002522F007025D
:103B6C00C0E91A1201EB02080C9AC0E90655C5739C
:103B7C00056702920B9A01920A9A00924246FEF74E
:103B8C0025FB054BC4E917559B6803B15B6F404699
:103B9C00636705B0BDE8B081C40700202DE9F0478C
:103BAC002A4E2B4DB04686B0B54205F1300410D3E9
:103BBC00FFF73EFC4FF4004940F2E7360027244C57
:103BCC00DFF890A0444521D306B0BDE8F047FFF7DD
:103BDC0081BC54F8043C059354F8103C049354F8FD
:103BEC00143C039354F8183C029354F81C3C019376
:103BFC0054F8203C009354E90A2354E90C01FFF7D4
:103C0C009DFF54F8303CDD652546CDE7636A5A1CB0
:103C1C000DD03046394623EAE373C9FB0301B942A0
:103C2C0008BFB042256804D12846FFF7A7FC303402
:103C3C00C8E74FF47A720023FCF7FAFB02460B46F6
:103C4C0005F11800514600F06BF8F0E7C4000020B5
:103C5C00C40000205957010008B54FF02003EFF3C2
:103C6C00118483F31188BFF36F8F044B986818612C
:103C7C00FFF71EFD2046FEF727FA00BFC407002001
:103C8C00034B1B680BB9FDF719BF0020704700BF31
:103C9C000408002030B5036868B10A4A52689042A3
:103CAC0009D043B1D3E90421D0E90445121945EBFD
:103CBC000101C3E90421426813605A600023C0E982
:103CCC00003330BD28000020134B10B51C689C42FB
:103CDC0008BF0024FFF7D4FFCCB1D4E90423121A97
:103CEC0063EBE073012A73F1000113DB10466FF0F4
:103CFC00004219460023824273EB010400DA10469D
:103D0C00064B5B6913B19842A8BF184610BD6FF003
:103D1C000040F5E70020F3E728000020C40700204E
:103D2C002DE9F74F019119464B1C08BFB2F1FF3F2B
:103D3C0082466BD06FF001034FF0FF3B541C41F1F6
:103D4C000005B3EB04086BEB0509B8F1000F79F132
:103D5C0000030FDBFFF794FF6FF00103324AD2E947
:103D6C00001C5B1A6BEB0C021E1B62EB0507341A72
:103D7C0067EBE075019BCAF808304FF02003EFF3B6
:103D8C00118683F31188BFF36F8FFFF779FF012C36
:103D9C0075F10003BCBF01240025244B24181A68BC
:103DAC0045EBE0759A42CAE9044501D05F6852B907
:103DBC005A68CAF80030CAF804205A68C2F800A041
:103DCC00C3F804A014E0D2E90489DAE904454445B7
:103DDC0075EB09011DDAB8EB040069EB0501C2E9CA
:103DEC0004015168CAE90021C1F800A0C2F804A07E
:103DFC001A689A4206D0924504D1FFF765FF00215C
:103E0C00FDF7F4FD86F31188BFF36F8F03B0BDE8A7
:103E1C00F08FB4EB080065EB0901BA42CAE9040162
:103E2C00C6D01268C3E700BF18020020280000208B
:103E3C002DE9F74F0646FFF7F9FB4FF02003EFF3A0
:103E4C00118483F31188BFF36F8FDFF8B0A02A4D74
:103E5C005146DFF8ACB02E60D5F800C0DBF800009E
:103E6C006246DAE90089D3175845CDE900230DD015
:103E7C0060B1D0E90467B445BB411DDA009BB6EBD9
:103E8C00030C019B67EB0306C0E904C60026009BEC
:103E9C002E6013EB0802019B43EB0903C1E90023DD
:103EAC00FFF712FF3146FDF7A1FD84F31188BFF334
:103EBC006F8F03B0BDE8F08F0022002318EB0608CB
:103ECC0049EBE679C0E90423ACEB0606CAE90089A4
:103EDC002E60FFF7DFFE84F31188BFF36F8F8368CA
:103EEC0098474FF02003EFF3118483F31188BFF34D
:103EFC006F8F0249B0E700BF0408002018020020B1
:103F0C002800002010B54FF02003EFF3118483F349
:103F1C001188BFF36F8FFDF7D1FD064BD3E900235A
:103F2C00121843F1000384F31188BFF36F8F10460E
:103F3C00194610BD1802002038B5064C064DAC428F
:103F4C0001D3002038BD2046D4E9011201F0BDFC9C
:103F5C001434F4E7C4000020C400002001F0FABAC5
:103F6C000A46002101F038BB10B5114800F048F8A2
:103F7C0000B110BD0F4800F043F80028F9D10E4CE9
:103F8C00204600F03DF80028F3D10C4B0C481C6087
:103F9C0000F036F801460028EBD100F02DF804466D
:103FAC0008B1204610BD00F051F82046FAE700BFDA
:103FBC003C00002030000020380000204000002091
:103FCC003400002008B5084800F024F8074800F039
:103FDC0021F8074800F01EF8064800F01BF8BDE871
:103FEC00084000F00BB800BF3C000020300000205F
:103FFC00380000203400002000207047704700BFBC
:10400C0008B5034B02681B6810689847002008BD70
:10401C005400002008B5034B02685B681068984791
:10402C00002008BD54000020024B02689B681068F9
:10403C00184700BF5400002008B5034B0268DB682A
:10404C0010689847002008BD5400002070B5094C3A
:10405C00094D2069AB68984718B1084B08485B6854
:10406C0098470021074AEB6811602069BDE8704051
:10407C00184700BF640000205400002044000020BA
:10408C00085D01000808002070B51A4D1A4E044650
:10409C00B26828699047F0B95CB1184C2368ABB191
:1040AC00012B1AD0013B23602869F3689847002044
:1040BC0070BD124C216839B90120114B114AC3F85B
:1040CC0000051368002BFCD101312160F3682869CD
:1040DC009847002070BD0C4870BD0A4A1368002B2D
:1040EC00FCD1074A6FF07E40C2F8003500F020F892
:1040FC002368D7E764000020540000200808002043
:10410C000000845010198450E98FFFFF0020704785
:10411C0000207047430503D54FF0FF32024B1A6065
:10412C00024B1860704700BF08118450081A845065
:10413C00014B1860704700BF041A845008B100F09E
:10414C0003B84FF4750070470246074803681342E2
:10415C00FCD021B1054B06481B680B600360054B76
:10416C0000201A60704700BF001A8450041184505C
:10417C0008118450081A845000F09EB838B131B13F
:10418C00002201440346013081421A70FAD1704773
:10419C002DE9F041ADF51A7D0E460592002114462D
:1041AC0012A84FF408721D4601F016FA00212822BD
:1041BC0008A8069101F010FA002E3CD0002D3AD040
:1041CC00002C38D0042106A8FFF7CAFE08A8282125
:1041DC00FFF7C6FE08A800F031F878B14FF0FF37B2
:1041EC004FF4087112A8FFF7C9FF042106A8FFF7C6
:1041FC00C5FF38460DF51A7DBDE8F08112AB0DF107
:10420C001C080246CDE90153039005AB08A9CDF873
:10421C00008006A800F014FD0028DFD12B68A34213
:10422C00DCD3D8F800100746224630460831FFF799
:10423C0095FE2C60D4E74FF0FF37DAE71C2330B53E
:10424C0083B001A90446019300F0CEF9054638B9B4
:10425C00019B1C2B07D0164D20461C21FFF780FE1E
:10426C00284603B030BD0121D4E90032003B18BF11
:10427C000123E1610AB143F00203A26832B9E2689A
:10428C0042B9C4E908328BB90A4DE5E7E26843F05C
:10429C0004033AB10022284643F00803C4E908326B
:1042AC0003B030BD1546C4E90832D9E71546D7E747
:1042BC00370CF0000E0CF00010B50C4C236813B149
:1042CC000B4B1B682BB900F04FF930B90122084B8E
:1042DC001A6001230020236010BD0138062801D983
:1042EC00044810BD044B53F8200010BD0C080020EE
:1042FC0010080020FE8FFFFF285D010010B50A4C4E
:10430C0023681BB101230020236010BD00F098F836
:10431C000028F7D00138062803D8044B53F82000A6
:10432C0010BD034810BD00BF0C080020285D010023
:10433C00FE8FFFFFBFF34F8F0549064BCA6802F48F
:10434C00E0621343CB60BFF34F8F00BFFDE700BFAC
:10435C0000ED00E00400FA05014B5B68184700BF54
:10436C0044000020024BD0E90012C3E90012704750
:10437C004400002048B143682BB1BFF35F8F00238A
:10438C00036018467047024870476FF4E04070476E
:10439C00EA8FFFFF10B5044628B1636813B1002300
:1043AC002360636010BD024B02485B689847F4E7DA
:1043BC0044000020445D010010B5044630B10022D9
:1043CC006368226043F00103636010BD0148FFF78E
:1043DC00C3FFF4E76C5D010080B1436863B1012257
:1043EC00D0E8EF3FC0E8E12F0029F9D1012BF7D03D
:1043FC00BFF35F8F00207047024870476FF4E040B6
:10440C00704700BFEA8FFFFF70B40B4B0668C268A1
:10441C00D0E90154C3E90242C3E90065D1E90302C2
:10442C000E68064BD1E90154C3E90065C3E90240AB
:10443C001A6170BC704700BF54000020640000205B
:10444C0010B5FFF763FE20B10324FFF7BBFD204638
:10445C0010BDFFF789FD90B9FFF716FE90B90F4B11
:10446C001B681B0EF02B08D10D4A0E4B12689A429A
:10447C000AD00724FFF74CFEE7E70624FAE70424EA
:10448C00204610BD0024F5E70120FFF7FDFD044692
:10449C000028F7D1044B1860D9E700BF28198450C5
:1044AC00241A84500000E0200C1A845030B5ADF56D
:1044BC00157D4FF4087200210CA801F08DF8002135
:1044CC00282202A8019101F087F802A8FFF7B6FE96
:1044DC0020B1052420460DF5157D30BD1D4D4FF046
:1044EC00FF312868FFF7A0FD0446E8B90020FFF76C
:1044FC00CBFD58BB0CAA02A901A800F0EDFB0446A9
:10450C000120FFF7C1FDE8B92868FFF795FD28B930
:10451C00002CDED120460DF5157D30BD0E48FFF781
:10452C001BFF002CF6D0D4E70C48FFF715FF012C2D
:10453C00DCD12868FFF780FD0028CAD00648FFF7B9
:10454C000BFFC6E70648FFF707FFDDE70548FFF757
:10455C0003FFCFE740000020A85D0100905D010043
:10456C00E05D0100C05D010008B5FFF7CFFD18B19B
:10457C00FFF728FD032008BDFFF7F6FCC0B9FFF7D5
:10458C0083FDB8B9144B1B681B0EF02B0AD1134AD0
:10459C00134B12689A4217D0FFF7BAFDFFF712FDC2
:1045AC00072008BDFFF7B4FDFFF70CFD062008BD82
:1045BC00042008BDFFF7ACFDFFF704FDFFF776FF05
:1045CC00002818BF052008BD0120FFF75DFD00285D
:1045DC00F0D1044B1860F1E728198450241A845048
:1045EC000000E0200C1A8450002866D0002964D00A
:1045FC000B681C2B61D14FF47F033B4AD3F8101C82
:10460C0091425CD0D3F8102C013258D0D3F8102C36
:10461C004FF47F030260D3F8141C344A914260D0EB
:10462C00D3F8142C01325CD0D3F8142C4FF47F0344
:10463C004260D3F8182C12F5947F4FD0D3F8182C75
:10464C0001324BD0D3F8182C4FF47F038260D3F88F
:10465C001C1C274A91423ED0D3F81C2C01323AD074
:10466C00D3F81C2C4FF47F03C260D3F8002C7032AB
:10467C002FD0D3F8002C01322BD0D3F8002C4FF4D0
:10468C007F030261D3F8042CAF3220D0D3F8042C72
:10469C0001321CD0D3F8042C4FF47F034261D3F8C1
:1046AC00081C144A91420DD0D3F8082C013209D0C1
:1046BC00D3F8083C8361002070470120704740F616
:1046CC00FC02A5E740F2373383610020704751228A
:1046DC00E2E79022D3E742F60412C3E740F6D86231
:1046EC00B2E742F2D002A1E7FCF8FFFFD020FFFFB7
:1046FC000429FFFF37F3FFFF2DE9F843002877D09B
:10470C000C46002974D01D46002B71D006461AB1F8
:10471C00012200232A6003602B68002B64D02946F9
:10472C00204600F015FB074600285ED1214628687C
:10473C0000F0F0FA0746002857D12B68082B66D0FA
:10474C00042B67D0A3F10208B8FA88F84FEA58187E
:10475C0001239C46314A3249136010460B60943A4F
:10476C00C0F800C0636A136011688B42F8D14FF037
:10477C0000092C4B4FF0FF30C3F80090FFF7CAFC38
:10478C00294B2A4A48461A60FFF7D2FC284A294B83
:10479C00C2F80080186840F48060FFF7C9FC0A2258
:1047AC00254B1A60089A2369012A616A24D0234A8E
:1047BC00A2FB03231B09012203FB01F303EB4303BD
:1047CC001F49DB039B090B60164B38461A60336894
:1047DC002A6823F07F4343EA026333602A6843EA82
:1047EC0002233360BDE8F883164F3846BDE8F883E2
:1047FC00154F3846BDE8F8834FF47F03D3F80C2CE3
:10480C00013202D0D3F80C3CD1E71623D3E74FF09A
:10481C0003089DE74FF002089AE700BFC4118450CB
:10482C00401184502C11845000118450FEFFFF0F56
:10483C000C118450041A845038118450ABAAAAAAC3
:10484C00D8118450310CF100350CF100F0B4002477
:10485C00C9002646274601F1FF3C06E09F4215D0D1
:10486C000126654518D82C461F46630950F823309D
:10487C0004F01F01CB401F2904F1010518BF03F000
:10488C000103002CEAD101263546ECE701369642AD
:10489C00E7D10348F0BC70470020F0BC704700BF64
:1048AC00360CF10000285FD02DE9F0414C1EB4F518
:1048BC00047F26D22BB322B3CC00012B04F1FF3E94
:1048CC002FD000218C460F460D4603F1FF384C09C2
:1048DC0050F8244001F01F06F4401F2E18BF04F0BE
:1048EC00010421B90125AC4629462746EFE7AB4226
:1048FC0013D0A74201D10CF1010C454504D16245FE
:10490C0002D21A48BDE8F0813C4601318E4505F1D2
:10491C000105EAD20020BDE8F08100254FF0010C22
:10492C00F3E70026B446374631464B0950F823309E
:10493C0001F01F05EB401F2D18BF03F0010339B127
:10494C005FB99C4501D0634608E06346013605E03B
:10495C00012631469C460127E7E73E46B242D0D3BA
:10496C000131A142F6D1D5E700487047370CF10070
:10497C002DE9F04F8DB0189E07460C46179D002E62
:10498C004CD1D1F810B000211D60169B1960002A83
:10499C0000F01E819A4A9B4B1168626A1B689A420E
:1049AC0047D10A2945D1FB7804930423B8460293D6
:1049BC00954BA3FB0B234FEA930A0AEB4A0305F131
:1049CC0008020392ABEB430A169BC3F800B0BBF191
:1049DC00000F00F0C3805D464FF00009039E00F00D
:1049EC00C7F900230593B8F1000F00F0E580002C07
:1049FC0000F0E280049B002B00F0DC80204604A930
:104A0C0000F0A6F9B8B1814B984240F0A780029013
:104A1C0000F0AEF902980DB0BDE8F08F4FF47F01B5
:104A2C00D1F80C0C01300CBF4FF4047BD1F80CBC4A
:104A3C00A9E77748EBE72146049800F06BF90028CA
:104A4C00E1D1049F082F00F0B980042F00F0B8804A
:104A5C00A7F10207B7FA87F77F09012319466D48BA
:104A6C00036040F8843C6B4B66481960636A0360D2
:104A7C0000688342F7D10023674A4FF0FF30136080
:104A8C00FFF748FB002365491846654B1960FFF793
:104A9C004FFB6449644B0F6018685B4F40F48060B7
:104AAC00FFF746FB0A210122554B6048196021692A
:104ABC00636AA7FB01C1090903FB01F303EB430381
:104ACC00DB039B090360544B05A81A600499D8F8C2
:104ADC0000200B0243EA016322F07F421343C8F823
:104AEC00003000F007F900288DD1514BA7FB0527AA
:104AFC001A681433069253F8102CB9EB970F0792DF
:104B0C0053F80C2C089253F8082C099253F8042CE7
:104B1C000A921B680B9302D1BAF1000F41D11822F3
:104B2C0030460DEB0201FFF719FA183D183609F162
:104B3C000109002D7FF453AFBBF5047F5DD8039DB5
:104B4C00594628466269FFF781FE00284BD00023A6
:104B5C00169A13602D4B98423FF459AF049D082DC3
:104B6C0034D0002204AB214640466D0000920495DF
:104B7C00FFF7C2FD2F4B984224D000287FF447AF9B
:104B8C00D8F80020130A03F47F03134323F07F4368
:104B9C00C8F80030029B013B02937FF415AF002054
:104BAC0035E73046524606A9FFF7D8F9A5EB0A05BA
:104BBC005644BCE71F4826E71F4824E703274CE769
:104BCC0002274AE7236A002B3FF421AF1B481EE75C
:104BDC00012221463846009604ABFFF78DFD0028D4
:104BEC003FF4E3AE13E74FF4806359462846A269BD
:104BFC00FFF758FE0028AAD1D1E7169B1D60ADE740
:104C0C003811845030118450ABAAAAAA020CF100BE
:104C1C00300CF100C41184502C118450FEFFFF0F96
:104C2C00001184500C118450041A8450D8118450F3
:104C3C0014118450310CF100350CF100320CF100E0
:104C4C002DE9F0411F4E84B004460D4630684FF0FC
:104C5C00FF3190460C9FFFF7E7F9D8B90020FFF71A
:104C6C0013FAF8B900230B9A20460092029342469D
:104C7C0029460A9B0197FFF77BFE04460120FFF7AC
:104C8C0003FAD0B93068FFF7D7F978B9204604B0E9
:104C9C00BDE8F0810C48FFF75FFB0020FFF7F4F94B
:104CAC000028DFD00948FFF757FBDBE70848FFF780
:104CBC0053FB204604B0BDE8F0810648FFF74CFBDF
:104CCC00E0E700BF40000020905D0100C05D0100E6
:104CDC00A85D0100E05D010010B5012486B005ABB4
:104CEC00CDE901240093002204ABFFF741FE06B08E
:104CFC0010BD00BF014608B54FF48060FFF71EFAE7
:104D0C0000230249024A0B60136008BDC81184508D
:104D1C002C1184500138072805D8DFE800F00A0E62
:104D2C0004120404040609487047CB6800204B6247
:104D3C0070470B6800204B6270474B6800204B6239
:104D4C0070478B6800204B62704700BF310CF1003C
:104D5C000B6802E0082B0B6006D8026A13424FEA7C
:104D6C004303F7D00020704700487047310CF10026
:104D7C0000230449044A0B604FF480601360FFF772
:104D8C00C9B900BF2C118450C411845008B5FCF76C
:104D9C00A1FFBDE80840FCF731BF60B1436803F0E8
:104DAC000303012B03D0032B05D103681BB1002394
:104DBC008360184670476FF01500704700224368F7
:104DCC00816003F00303032B14BF13460368426096
:104DDC0018467047002070470FB407B504A951F866
:104DEC00040B0191FBF7D4FC03B05DF804EB04B0A9
:104DFC007047038B13F0070305D10368002B0CBF1E
:104E0C00002003207047022B05D1438B002B14BFCD
:104E1C00002004207047012B05D10368002B0CBF28
:104E2C000020052070470020704773B50D460646DC
:104E3C001946281D01920093FFF7C0FF044640B1AC
:104E4C00DDE9003229463046A44602B0BDE8704088
:104E5C00604702B070BD10B44FF02004EFF3118224
:104E6C0084F31188BFF36F8F41615DF8044B01210E
:104E7C00FBF79CBC10B50C4640B139B1081DFFF7CF
:104E8C008CFF28B9A36833F0030301D06FF0150031
:104E9C0010BD38B50C46054658B151B10B6843B13D
:104EAC004B6833B11C22002100F096FB00202C61D2
:104EBC0038BD6FF01500FBE770B504460E46FFF7E2
:104ECC00D9FF051E31DB4FF02003EFF3118183F383
:104EDC001188BFF36F8F4FF6FF75638B208BAB423E
:104EEC0000F007022ED0022A0ED10133638315463F
:104EFC00012381F31188BFF36F8FB3B100233146C7
:104F0C002046FFF792FF10E0830701D0062A0ED14E
:104F1C0000233360636893B9C4E90066154662B92F
:104F2C000A4620460221FBF741FC284670BD052AA3
:104F3C000CBF6FF022056FF004050023D9E71E604B
:104F4C006660EBE76FF00A05F7E7044608B508461C
:104F5C0011461A46A047FEF7A1FDFDF77FFB8368BB
:104F6C0000EBC101B3F5004F2CBF51F8220031F812
:104F7C001200704700EBC1018068B0F5004F2CBFE8
:104F8C0041F8223021F812307047012208B5FFF7A2
:104F9C00E6FF400808BD836800EBC101B3F5004F84
:104FAC0008D34B681AB143F001034B60704723F0F0
:104FBC000103FAE74B881AB143F001034B807047A9
:104FCC0023F00103FAE753000122FFF7D3BF8068F7
:104FDC000131B0F5004F2CBF02200120081AB0FAA5
:104FEC0080F0C0F11F0070472DE9F04104460D46DA
:104FFC00FFF7CBFFA3680146B3F5004F01D301289F
:10500C0035D02046FFF7E3FF04EB800216699EB90A
:10501C00012303FA00F0E36829460343E3602046CA
:10502C0015612B460222FFF7A5FF032229462046D5
:10503C00BDE8F041FFF79EBF022231462046FFF744
:10504C008EFF07460346022229462046FFF792FFB1
:10505C003346032229462046FFF78CFF03223946AC
:10506C002B462046FFF786FF02223146DFE7BDE8DC
:10507C00F081B2F5802FF8B52CBF0825042500234C
:10508C00551B0022CC1D24F007040460C4E9002346
:10509C0000230D4425F007052D1BED08294620465D
:1050AC00A560E360FFF793FF8600411C18461B3692
:1050BC00F60804F110028B4229DB3246204600210F
:1050CC00FFF781FFAF1B204601220021FFF763FF92
:1050DC003A463146FFF777FF3346314620460022E9
:1050EC00FFF748FF294620460022FFF76CFF3B469E
:1050FC00294620460022FFF73DFF29462046012283
:10510C00FFF749FF3146BDE8F840FFF76DBF42F8A5
:10511C00040B0133CFE7002170B5D0E900657208AC
:10512C0006F0010342EAC5729B184FEA550444EBA2
:10513C000101C0E9003170BD4FF0333101EB410387
:10514C002DE9F043D0E900241D460027A2FB01897C
:10515C0018EB0505A4FB014549EB030618EB04020B
:10516C0049EB050192193A4647EB0101631845EBEF
:10517C000202C0E90032BDE8F0830B6870B5002B69
:10518C0010DD013B0B600A2102684468A2FB01564A
:10519C0001FB046626F07043C0E90053310F303137
:1051AC00084670BD3021FBE72DE9F74F9946D378BF
:1051BC0014466F2BA3F1410206460F4601922DD0E7
:1051CC0028D8582B14BF0A251025AA464FF0000BDF
:1051DC00DDF8308052465B4630463946FBF728F9FD
:1051EC00092AD3B21FD830335F45DBB208BF56450E
:1051FC0008F8013D01D3C84512D823789B0605D584
:10520C00082D16D1A37843F00803A370404603B0D1
:10521C00BDE8F08F03F0F703702BD3E70825D4E734
:10522C0006460F46D6E7019A192A94BF37335733EF
:10523C00DAE7102DEAD1A37843F01003E5E72DE966
:10524C00F8438046894616461F461546BD42A5EBD7
:10525C00060405D30FB1204608E02B78002BFAD0BA
:10526C00494615F8010BC0470028EFDABDE8F88372
:10527C007047FDF779BCCBB20C21C26803FB01214E
:10528C00086C00F0070070474FF02003EFF3118219
:10529C0083F31188BFF36F8F036813F0C00301D041
:1052AC008B4207D101230360002082F31188BFF3E6
:1052BC006F8F70474FF0FF30F7E710B54FF02003BA
:1052CC00EFF3118283F31188BFF36F8F036803F040
:1052DC000704012C06D10160002082F31188BFF372
:1052EC006F8F10BD03F0C0038B4214BF4FF0FF3023
:1052FC006FF04400F1E74FF02003EFF3118283F3DA
:10530C001188BFF36F8F036803F0C00343F00203EF
:10531C00036082F31188BFF36F8F704710B41C24A5
:10532C00C068CBB203FB040000215DF8044B1047AE
:10533C001046FEF7B9BB0020FDF712BD0020FDF7AB
:10534C00DDBC38B50C23CCB263430546C068403392
:10535C0080211844FFF798FF002805DB696801EBF2
:10536C00C40463689847002038BD2DE9F8430C2726
:10537C00CDB26F43C468064607F14000802120443B
:10538C0090469946FFF799FF002807DB3C44C4E997
:10539C000E89736853F8353098470020BDE8F883C0
:1053AC00704770477047002307B501A88DF804308B
:1053BC00FEF7E2FE03B05DF804FB902908B5134636
:1053CC0039D10A4601460020FEF7E2FEBDE808404E
:1053DC00714672467346B7EE000AF7EE000AB7EE56
:1053EC00001AF7EE001AB7EE002AF7EE002AB7EE15
:1053FC00003AF7EE003AB7EE004AF7EE004AB7EE85
:10540C00005AF7EE005AB7EE006AF7EE006AB7EEF4
:10541C00007AF7EE007A8EF3008C10B4F1EE10CA1D
:10542C004FF66074C0F6FF740CEA040CE1EE10CA7F
:10543C0010BCF44674476FF01500C7E70020FCF76A
:10544C00D9B80021012000F02EB843B2C9B9002B05
:10545C0015DB01215B099B0003F1604303F56143FC
:10546C00D3F8802200F01F00814022EA0102C3F829
:10547C008022D3F88012C14001F00101C9B2084664
:10548C007047002B0DDB01225B099B0003F160438D
:10549C0003F56143D3F8801200F01F0082400A43E9
:1054AC00E5E70021EBE700F0D5B80146006800F015
:1054BC00D1B808B5FCF7DEFEBDE80840FDF76CB8C6
:1054CC007FB50A898E7A0B684D6802F01F0242EA9A
:1054DC00461200938DF8082023F01F036A1E134414
:1054EC0023F01F030F28039304D86946FDF702F934
:1054FC0004B070BD6FF01500FAE740E800F0C3B2DD
:10550C0010F4803F14BF18466FF015007047034627
:10551C0000201A5C02B970470130FAE701380139F2
:10552C0010F8013F11F8012F934201D1002BF7D154
:10553C00981A704710B55AB10139841810F8012B1C
:10554C0011F8013FA04201D09A42F7D0D01A10BDF9
:10555C001046FCE7431A934210B500EB020308D344
:10556C00024601399A420BD011F8014F02F8014B57
:10557C00F8E70A4412F8014D8A4203F8014DF9D1BB
:10558C0010BDF0B581EA0004A50703460BD0013B22
:10559C000A4491421BD1F0BD002AFCD011F8014BFA
:1055AC00013A03F8014B9C07F6D122F003041D1FAE
:1055BC0096080F19B94205D16FF00305234405FB7A
:1055CC000622E4E751F804CB45F804CFF2E711F8D2
:1055DC00014B03F8014FDCE7034670B5C9B29C07D9
:1055EC0011D141EA012422F0030644EA04451E4489
:1055FC009408B3420DD16FF0030505FB04221A4445
:10560C00934209D170BD002AFCD003F8011B013A6A
:10561C00E5E743F8045BECE703F8011BF0E7002037
:10562C0008B5FCF7C7FF08B5FCF7B4FCFCF736FD72
:10563C00BDE80840FEF762BE004700F0FDB808B5B3
:10564C000520FCF79FFD20B9BDE808400520FCF7BC
:10565C0089BD08BD73B5054601914FF02003EFF3EA
:10566C00118683F31188BFF36F8FFEF717FA019938
:10567C0004462846FFF7D3FF86F31188BFF36F8FDC
:10568C00204602B0BDE87040FCF7E8BFFFF789BECA
:10569C0030B50024846141EA020414F00304C0E92B
:1056AC00023201610CD14461A34203D1C0E9000074
:1056BC00002030BD456901340D6041611144F3E7B0
:1056CC006FF01500F5E70023C0E90000C0E90233D4
:1056DC0018467047034620B9EFF305820AB9FCF768
:1056EC00F3BC83F31188BFF36F8F70474FF0200327
:1056FC00EFF3118083F31188BFF36F8FFFF7EABFCD
:10570C00014608B58068FDF7A7FE4B7B23F002032A
:10571C004B7300238B6008BD0368984204D0002BA8
:10572C0038BF0023184670470020704710B54FF063
:10573C002003EFF3118483F31188BFF36F8FFDF710
:10574C00E5FE84F31188BFF36F8F10BD37B50446A7
:10575C004FF02003EFF3118583F31188BFF36F8FA4
:10576C0054F8103C18381BB10190FFF7C9FF019891
:10577C0014F80B3C23F0140304F80B3CFDF7C6FEA5
:10578C0085F31188BFF36F8F03B030BD38B5044675
:10579C000D46FEF743F8637B43F002036373C5B118
:1057AC002B68A5609D4208BF0023002B38BF002347
:1057BC0083B194F90E1093F90E20914204DB6A68C0
:1057CC009A4207D01B68F3E75A68C4E900321460A8
:1057DC005C6038BD6B68256063606B681C606C60D6
:1057EC00F7E738B54FF02003EFF3118283F31188FC
:1057FC00BFF36F8FFFF790FF044682F31188BFF35E
:10580C006F8F88B14FF02003EFF3118583F311886C
:10581C00BFF36F8FFFF774FF85F31188BFF36F8FA2
:10582C0004F1180000F00CF8204638BDEFF30580A9
:10583C00003818BF0120704708B1FBF7D1BE704784
:10584C0010B54FF02002EFF3118482F31188BFF3EF
:10585C006F8F03683BB1FEF71DFA002084F31188AB
:10586C00BFF36F8F10BD6FF01500F7E710B54FF059
:10587C002003EFF3118483F31188BFF36F8FFEF7CE
:10588C0023FA84F31188BFF36F8F10BD37B504462C
:10589C0001914FF02003EFF3118583F31188BFF3CF
:1058AC006F8FFEF711FA012805DDA042019902DD88
:1058BC002046FCF79BF885F31188BFF36F8F03B07C
:1058CC0030BD08B5FEF71EFB08BD10B400F10C048A
:0E58DC00C0E903445DF8044BFFF7CBBB7047F7
:0258EA00FFFFBE
:0858EC0080ABFF7F010000000A
:1058F400C5150100000000001D310100000000007A
:10590400453F010000000000912801000000000054
:10591400D116010090000020A5190100A00000206C
:10592400892A01000000000033560100B000002065
:08593400BD2A01000000000083
:10593C00000000004F540100000000004F54010013
:10594C00000000004F540100000000004F54010003
:10595C00000000004F540100F12D010045560100DC
:10596C00000000004F540100000000004F540100E3
:10597C00000000004F540100000000004F540100D3
:10598C00000000004F540100000000004F540100C3
:10599C00000000004F540100000000004F540100B3
:1059AC00000000004F540100000000004F540100A3
:1059BC00000000004F540100000000004F54010093
:1059CC00000000004F540100000000004F54010083
:1059DC00000000004F540100000000007919010084
:1059EC00000000004F540100000000004F54010063
:1059FC00000000004F540100000000004F54010053
:105A0C00000000004F540100000000004F54010042
:105A1C00000000004F540100000000004F54010032
:105A2C00000000004F540100000000004F54010022
:105A3C00000000004F540100000000004F54010012
:105A4C00000000004F540100000000004F54010002
:105A5C00000000004F540100000000004F540100F2
:105A6C00000000004F540100000000004F540100E2
:105A7C00000000004F540100000000004F540100D2
:105A8C00000000004F540100000000004F540100C2
:105A9C00000000004F540100000000004F540100B2
:105AAC00000000004F540100000000004F540100A2
:105ABC00000000004F540100000000004F54010092
:105ACC00000000004F540100000000004F54010082
:105ADC00000000004F540100000000004F54010072
:105AEC00000000004F540100000000004F54010062
:105AFC00000000004F540100000000004F54010052
:105B0C00000000004F540100000000004F54010041
:105B1C00000000004F540100000000004F54010031
:105B2C00000000004F540100000000004F54010021
:085B3C00000000004F540100BD
:0C5B4400FFFFFFFFFFFFFFFFFFFFFFFF61
:105B5000DEE61E284CBBCE8F025B0000DEE61E2870
:105B6000EAAC45B8025B0000DEE61E284CBBCE8FD7
:105B7000025B0000000000000000000000000000C8
:105B80000338FDD870470000111801004F53010081
:105B900077530100000000008352010089170100C3
:105BA000ED1701004953010043530100791601002C
:105BB0003116010000000000E15F01004201000019
:105BC000E85F010005010000F25F01001401000020
:105BD000FB5F0100150100000460010039010000B5
:105BE0000D60010009010000186001000A010000B9
:105BF000236001000A0100002D6001000B0100007C
:105C0000376001000F010000426001001001000038
:105C10004D60010011010000586001000E010000FC
:105C200062600100210100006B60010022010000A0
:105C300074600100230100007D6001002401000068
:105C400086600100180100008E6001002A0100003A
:105C5000966001003A0100009E6001002C010000E6
:105C6000A66001001C010000AF6001001D010000E2
:105C7000B860010017010000C2600100310100009E
:105C8000CE600100040100000000000000020000DE
:105C900000040000000800000010000000000000E8
:105CA000495401000D200100CD1F010075200100A5
:105CB000AD1F01001C000020040000201400002083
:105CC000000000000C00002002000000D05C010079
